{
  "contractName": "Donation",
  "abi": [
    {
      "inputs": [
        {
          "internalType": "address",
          "name": "_receiverAddress",
          "type": "address"
        }
      ],
      "stateMutability": "payable",
      "type": "constructor",
      "payable": true
    },
    {
      "anonymous": false,
      "inputs": [
        {
          "indexed": true,
          "internalType": "address",
          "name": "donor",
          "type": "address"
        },
        {
          "indexed": false,
          "internalType": "uint256",
          "name": "amount",
          "type": "uint256"
        }
      ],
      "name": "DonationReceived",
      "type": "event"
    },
    {
      "anonymous": false,
      "inputs": [
        {
          "indexed": true,
          "internalType": "address",
          "name": "receiver",
          "type": "address"
        },
        {
          "indexed": false,
          "internalType": "uint256",
          "name": "amount",
          "type": "uint256"
        }
      ],
      "name": "DonationWithdrawn",
      "type": "event"
    },
    {
      "anonymous": false,
      "inputs": [
        {
          "indexed": true,
          "internalType": "address",
          "name": "buyer",
          "type": "address"
        },
        {
          "indexed": false,
          "internalType": "uint256",
          "name": "productId",
          "type": "uint256"
        },
        {
          "indexed": false,
          "internalType": "uint256",
          "name": "price",
          "type": "uint256"
        }
      ],
      "name": "ProductPurchased",
      "type": "event"
    },
    {
      "anonymous": false,
      "inputs": [
        {
          "indexed": true,
          "internalType": "address",
          "name": "donor",
          "type": "address"
        },
        {
          "indexed": false,
          "internalType": "uint256",
          "name": "amount",
          "type": "uint256"
        }
      ],
      "name": "RewardClaimed",
      "type": "event"
    },
    {
      "inputs": [],
      "name": "charityAddress",
      "outputs": [
        {
          "internalType": "address",
          "name": "",
          "type": "address"
        }
      ],
      "stateMutability": "view",
      "type": "function",
      "constant": true
    },
    {
      "inputs": [
        {
          "internalType": "address",
          "name": "",
          "type": "address"
        }
      ],
      "name": "donors",
      "outputs": [
        {
          "internalType": "address",
          "name": "donorAddress",
          "type": "address"
        },
        {
          "internalType": "uint256",
          "name": "donationAmount",
          "type": "uint256"
        },
        {
          "internalType": "bool",
          "name": "rewarded",
          "type": "bool"
        }
      ],
      "stateMutability": "view",
      "type": "function",
      "constant": true
    },
    {
      "inputs": [
        {
          "internalType": "uint256",
          "name": "",
          "type": "uint256"
        }
      ],
      "name": "productSellers",
      "outputs": [
        {
          "internalType": "address",
          "name": "",
          "type": "address"
        }
      ],
      "stateMutability": "view",
      "type": "function",
      "constant": true
    },
    {
      "inputs": [
        {
          "internalType": "uint256",
          "name": "",
          "type": "uint256"
        }
      ],
      "name": "products",
      "outputs": [
        {
          "internalType": "uint256",
          "name": "productId",
          "type": "uint256"
        },
        {
          "internalType": "string",
          "name": "name",
          "type": "string"
        },
        {
          "internalType": "uint256",
          "name": "price",
          "type": "uint256"
        },
        {
          "internalType": "address",
          "name": "sellerAddress",
          "type": "address"
        }
      ],
      "stateMutability": "view",
      "type": "function",
      "constant": true
    },
    {
      "inputs": [],
      "name": "projectCount",
      "outputs": [
        {
          "internalType": "uint256",
          "name": "",
          "type": "uint256"
        }
      ],
      "stateMutability": "view",
      "type": "function",
      "constant": true
    },
    {
      "inputs": [],
      "name": "purchaseCount",
      "outputs": [
        {
          "internalType": "uint256",
          "name": "",
          "type": "uint256"
        }
      ],
      "stateMutability": "view",
      "type": "function",
      "constant": true
    },
    {
      "inputs": [
        {
          "internalType": "uint256",
          "name": "",
          "type": "uint256"
        }
      ],
      "name": "purchases",
      "outputs": [
        {
          "internalType": "address",
          "name": "buyer",
          "type": "address"
        },
        {
          "internalType": "uint256",
          "name": "productId",
          "type": "uint256"
        },
        {
          "internalType": "uint256",
          "name": "purchaseAmount",
          "type": "uint256"
        }
      ],
      "stateMutability": "view",
      "type": "function",
      "constant": true
    },
    {
      "inputs": [],
      "name": "receiverAddress",
      "outputs": [
        {
          "internalType": "address",
          "name": "",
          "type": "address"
        }
      ],
      "stateMutability": "view",
      "type": "function",
      "constant": true
    },
    {
      "inputs": [],
      "name": "rewardAmount",
      "outputs": [
        {
          "internalType": "uint256",
          "name": "",
          "type": "uint256"
        }
      ],
      "stateMutability": "view",
      "type": "function",
      "constant": true
    },
    {
      "inputs": [],
      "name": "totalDonations",
      "outputs": [
        {
          "internalType": "uint256",
          "name": "",
          "type": "uint256"
        }
      ],
      "stateMutability": "view",
      "type": "function",
      "constant": true
    },
    {
      "inputs": [],
      "name": "withdrawnAmount",
      "outputs": [
        {
          "internalType": "uint256",
          "name": "",
          "type": "uint256"
        }
      ],
      "stateMutability": "view",
      "type": "function",
      "constant": true
    },
    {
      "inputs": [
        {
          "internalType": "address",
          "name": "_receiverAddress",
          "type": "address"
        }
      ],
      "name": "setReceiverAddress",
      "outputs": [],
      "stateMutability": "nonpayable",
      "type": "function"
    },
    {
      "inputs": [
        {
          "internalType": "address",
          "name": "_charityAddress",
          "type": "address"
        }
      ],
      "name": "setCharityAddress",
      "outputs": [],
      "stateMutability": "nonpayable",
      "type": "function"
    },
    {
      "inputs": [
        {
          "internalType": "address",
          "name": "_donorAddress",
          "type": "address"
        }
      ],
      "name": "donate",
      "outputs": [],
      "stateMutability": "payable",
      "type": "function",
      "payable": true
    },
    {
      "inputs": [
        {
          "internalType": "address",
          "name": "donorAddress",
          "type": "address"
        }
      ],
      "name": "getDonorDonation",
      "outputs": [
        {
          "internalType": "uint256",
          "name": "",
          "type": "uint256"
        }
      ],
      "stateMutability": "view",
      "type": "function",
      "constant": true
    },
    {
      "inputs": [],
      "name": "claimReward",
      "outputs": [],
      "stateMutability": "nonpayable",
      "type": "function"
    },
    {
      "inputs": [
        {
          "internalType": "address",
          "name": "_receiverAddress",
          "type": "address"
        }
      ],
      "name": "withdrawDonations",
      "outputs": [],
      "stateMutability": "nonpayable",
      "type": "function"
    },
    {
      "inputs": [],
      "name": "getRewardAmount",
      "outputs": [
        {
          "internalType": "uint256",
          "name": "",
          "type": "uint256"
        }
      ],
      "stateMutability": "view",
      "type": "function",
      "constant": true
    },
    {
      "inputs": [],
      "name": "getCharityAddress",
      "outputs": [
        {
          "internalType": "address",
          "name": "",
          "type": "address"
        }
      ],
      "stateMutability": "view",
      "type": "function",
      "constant": true
    },
    {
      "inputs": [],
      "name": "getReceiverAddress",
      "outputs": [
        {
          "internalType": "address",
          "name": "",
          "type": "address"
        }
      ],
      "stateMutability": "view",
      "type": "function",
      "constant": true
    },
    {
      "inputs": [],
      "name": "getContractBalance",
      "outputs": [
        {
          "internalType": "uint256",
          "name": "",
          "type": "uint256"
        }
      ],
      "stateMutability": "view",
      "type": "function",
      "constant": true
    },
    {
      "inputs": [
        {
          "internalType": "string",
          "name": "_name",
          "type": "string"
        },
        {
          "internalType": "uint256",
          "name": "_price",
          "type": "uint256"
        },
        {
          "internalType": "address",
          "name": "_sellerAddress",
          "type": "address"
        }
      ],
      "name": "addProduct",
      "outputs": [],
      "stateMutability": "nonpayable",
      "type": "function"
    },
    {
      "inputs": [],
      "name": "getProductsCount",
      "outputs": [
        {
          "internalType": "uint256",
          "name": "",
          "type": "uint256"
        }
      ],
      "stateMutability": "view",
      "type": "function",
      "constant": true
    },
    {
      "inputs": [
        {
          "internalType": "uint256",
          "name": "_productId",
          "type": "uint256"
        }
      ],
      "name": "purchaseProduct",
      "outputs": [],
      "stateMutability": "nonpayable",
      "type": "function"
    }
  ],
  "bytecode": "0x608060405260405162002509380380620025098339818101604052810190620000299190620000c9565b33600460006101000a81548173ffffffffffffffffffffffffffffffffffffffff021916908373ffffffffffffffffffffffffffffffffffffffff16021790555080600560006101000a81548173ffffffffffffffffffffffffffffffffffffffff021916908373ffffffffffffffffffffffffffffffffffffffff1602179055505062000143565b600081519050620000c38162000129565b92915050565b600060208284031215620000dc57600080fd5b6000620000ec84828501620000b2565b91505092915050565b6000620001028262000109565b9050919050565b600073ffffffffffffffffffffffffffffffffffffffff82169050919050565b6200013481620000f5565b81146200014057600080fd5b50565b6123b680620001536000396000f3fe60806040526004361061014a5760003560e01c80637acc0b20116100b6578063a8ff20f91161006f578063a8ff20f91461048b578063afcf2fc4146104b4578063b88a802f146104df578063ca0cdea8146104f6578063de2ed89314610535578063f7b2a7be146105605761014a565b80637acc0b20146103525780638279c7db14610392578063830de4b1146103bb5780638392fe31146103e65780638c7384e614610425578063a56f5b53146104625761014a565b80632b85ed9c116101085780632b85ed9c1461025257806336fbad261461027d57806338e76a03146102a8578063531ebce5146102d15780635786fd40146102fc5780636f9fb98a146103275761014a565b8062362a951461014f57806309a69f571461016b5780630c9be46d1461019657806315c6cba8146101bf57806316fed3e2146101fc5780631ad0639314610227575b600080fd5b610169600480360381019061016491906117a0565b61058b565b005b34801561017757600080fd5b50610180610717565b60405161018d919061200d565b60405180910390f35b3480156101a257600080fd5b506101bd60048036038101906101b891906117a0565b610721565b005b3480156101cb57600080fd5b506101e660048036038101906101e191906117a0565b6107f5565b6040516101f3919061200d565b60405180910390f35b34801561020857600080fd5b50610211610840565b60405161021e9190611dc4565b60405180910390f35b34801561023357600080fd5b5061023c610866565b6040516102499190611dc4565b60405180910390f35b34801561025e57600080fd5b50610267610890565b604051610274919061200d565b60405180910390f35b34801561028957600080fd5b50610292610896565b60405161029f919061200d565b60405180910390f35b3480156102b457600080fd5b506102cf60048036038101906102ca9190611830565b61089c565b005b3480156102dd57600080fd5b506102e6610d31565b6040516102f39190611dc4565b60405180910390f35b34801561030857600080fd5b50610311610d5b565b60405161031e919061200d565b60405180910390f35b34801561033357600080fd5b5061033c610d65565b604051610349919061200d565b60405180910390f35b34801561035e57600080fd5b5061037960048036038101906103749190611830565b610d6d565b6040516103899493929190612028565b60405180910390f35b34801561039e57600080fd5b506103b960048036038101906103b491906117a0565b610e45565b005b3480156103c757600080fd5b506103d0610f19565b6040516103dd919061200d565b60405180910390f35b3480156103f257600080fd5b5061040d60048036038101906104089190611830565b610f1f565b60405161041c93929190611e16565b60405180910390f35b34801561043157600080fd5b5061044c60048036038101906104479190611830565b610f69565b6040516104599190611dc4565b60405180910390f35b34801561046e57600080fd5b50610489600480360381019061048491906117a0565b610f9c565b005b34801561049757600080fd5b506104b260048036038101906104ad91906117c9565b6111b8565b005b3480156104c057600080fd5b506104c961138a565b6040516104d69190611dc4565b60405180910390f35b3480156104eb57600080fd5b506104f46113b0565b005b34801561050257600080fd5b5061051d600480360381019061051891906117a0565b611608565b60405161052c93929190611ddf565b60405180910390f35b34801561054157600080fd5b5061054a61165f565b604051610557919061200d565b60405180910390f35b34801561056c57600080fd5b50610575611665565b604051610582919061200d565b60405180910390f35b600034116105ce576040517f08c379a00000000000000000000000000000000000000000000000000000000081526004016105c590611fcd565b60405180910390fd5b60008060008373ffffffffffffffffffffffffffffffffffffffff1673ffffffffffffffffffffffffffffffffffffffff1681526020019081526020016000209050818160000160006101000a81548173ffffffffffffffffffffffffffffffffffffffff021916908373ffffffffffffffffffffffffffffffffffffffff160217905550348160010160008282546106679190612125565b9250508190555060008160020160006101000a81548160ff021916908315150217905550346006600082825461069d9190612125565b925050819055508173ffffffffffffffffffffffffffffffffffffffff167f264f630d9efa0d07053a31163641d9fcc0adafc9d9e76f1c37c2ce3a558d2c52346040516106ea919061200d565b60405180910390a2670de0b6b3a76400006008600082825461070c9190612125565b925050819055505050565b6000600854905090565b600460009054906101000a900473ffffffffffffffffffffffffffffffffffffffff1673ffffffffffffffffffffffffffffffffffffffff163373ffffffffffffffffffffffffffffffffffffffff16146107b1576040517f08c379a00000000000000000000000000000000000000000000000000000000081526004016107a890611f0d565b60405180910390fd5b80600460006101000a81548173ffffffffffffffffffffffffffffffffffffffff021916908373ffffffffffffffffffffffffffffffffffffffff16021790555050565b60008060008373ffffffffffffffffffffffffffffffffffffffff1673ffffffffffffffffffffffffffffffffffffffff168152602001908152602001600020600101549050919050565b600560009054906101000a900473ffffffffffffffffffffffffffffffffffffffff1681565b6000600460009054906101000a900473ffffffffffffffffffffffffffffffffffffffff16905090565b600a5481565b60095481565b60008060003373ffffffffffffffffffffffffffffffffffffffff1673ffffffffffffffffffffffffffffffffffffffff1681526020019081526020016000206001015411610920576040517f08c379a000000000000000000000000000000000000000000000000000000000815260040161091790611ecd565b60405180910390fd5b6000803373ffffffffffffffffffffffffffffffffffffffff1673ffffffffffffffffffffffffffffffffffffffff16815260200190815260200160002060020160009054906101000a900460ff16156109af576040517f08c379a00000000000000000000000000000000000000000000000000000000081526004016109a690611e8d565b60405180910390fd5b6008544710156109f4576040517f08c379a00000000000000000000000000000000000000000000000000000000081526004016109eb90611fed565b60405180910390fd5b6000600160008381526020019081526020016000206002015411610a4d576040517f08c379a0000000000000000000000000000000000000000000000000000000008152600401610a4490611ead565b60405180910390fd5b60006001600083815260200190815260200160002060020154905080471015610aab576040517f08c379a0000000000000000000000000000000000000000000000000000000008152600401610aa290611f2d565b60405180910390fd5b60016000803373ffffffffffffffffffffffffffffffffffffffff1673ffffffffffffffffffffffffffffffffffffffff16815260200190815260200160002060020160006101000a81548160ff02191690831515021790555060006001600084815260200190815260200160002060030160009054906101000a900473ffffffffffffffffffffffffffffffffffffffff1673ffffffffffffffffffffffffffffffffffffffff16825a90604051610b6390611daf565b600060405180830381858888f193505050503d8060008114610ba1576040519150601f19603f3d011682016040523d82523d6000602084013e610ba6565b606091505b5050905080610bea576040517f08c379a0000000000000000000000000000000000000000000000000000000008152600401610be190611e6d565b60405180910390fd5b600060405180606001604052803373ffffffffffffffffffffffffffffffffffffffff1681526020018581526020018481525090508060036000600a54815260200190815260200160002060008201518160000160006101000a81548173ffffffffffffffffffffffffffffffffffffffff021916908373ffffffffffffffffffffffffffffffffffffffff1602179055506020820151816001015560408201518160020155905050600a6000815480929190610ca69061226b565b9190505550610cb3610d65565b6006819055503373ffffffffffffffffffffffffffffffffffffffff167f228a5d93a19503d5154326b1b21603e2cdd97bda22fc58196235b4490659fc018585604051610d01929190612074565b60405180910390a28260086000828254610d1b919061217b565b92505081905550610d2a610717565b5050505050565b6000600560009054906101000a900473ffffffffffffffffffffffffffffffffffffffff16905090565b6000600954905090565b600047905090565b6001602052806000526040600020600091509050806000015490806001018054610d9690612239565b80601f0160208091040260200160405190810160405280929190818152602001828054610dc290612239565b8015610e0f5780601f10610de457610100808354040283529160200191610e0f565b820191906000526020600020905b815481529060010190602001808311610df257829003601f168201915b5050505050908060020154908060030160009054906101000a900473ffffffffffffffffffffffffffffffffffffffff16905084565b600560009054906101000a900473ffffffffffffffffffffffffffffffffffffffff1673ffffffffffffffffffffffffffffffffffffffff163373ffffffffffffffffffffffffffffffffffffffff1614610ed5576040517f08c379a0000000000000000000000000000000000000000000000000000000008152600401610ecc90611e4d565b60405180910390fd5b80600560006101000a81548173ffffffffffffffffffffffffffffffffffffffff021916908373ffffffffffffffffffffffffffffffffffffffff16021790555050565b60075481565b60036020528060005260406000206000915090508060000160009054906101000a900473ffffffffffffffffffffffffffffffffffffffff16908060010154908060020154905083565b60026020528060005260406000206000915054906101000a900473ffffffffffffffffffffffffffffffffffffffff1681565b600460009054906101000a900473ffffffffffffffffffffffffffffffffffffffff1673ffffffffffffffffffffffffffffffffffffffff163373ffffffffffffffffffffffffffffffffffffffff161461102c576040517f08c379a000000000000000000000000000000000000000000000000000000000815260040161102390611fad565b60405180910390fd5b600060065411611071576040517f08c379a000000000000000000000000000000000000000000000000000000000815260040161106890611f8d565b60405180910390fd5b6000600560009054906101000a900473ffffffffffffffffffffffffffffffffffffffff1673ffffffffffffffffffffffffffffffffffffffff166006546040516110bb90611daf565b60006040518083038185875af1925050503d80600081146110f8576040519150601f19603f3d011682016040523d82523d6000602084013e6110fd565b606091505b5050905080611141576040517f08c379a000000000000000000000000000000000000000000000000000000000815260040161113890611eed565b60405180910390fd5b600654600760008282546111559190612125565b925050819055508173ffffffffffffffffffffffffffffffffffffffff167f84be5dad61c795759fa50da4da9ff0ffc28c522295c26854247b7d22728d8c016006546040516111a4919061200d565b60405180910390a260006006819055505050565b600460009054906101000a900473ffffffffffffffffffffffffffffffffffffffff1673ffffffffffffffffffffffffffffffffffffffff163373ffffffffffffffffffffffffffffffffffffffff1614611248576040517f08c379a000000000000000000000000000000000000000000000000000000000815260040161123f90611f6d565b60405180910390fd5b60006009549050600060405180608001604052808381526020018681526020018581526020018473ffffffffffffffffffffffffffffffffffffffff16815250905080600160008481526020019081526020016000206000820151816000015560208201518160010190805190602001906112c492919061166b565b506040820151816002015560608201518160030160006101000a81548173ffffffffffffffffffffffffffffffffffffffff021916908373ffffffffffffffffffffffffffffffffffffffff160217905550905050826002600084815260200190815260200160002060006101000a81548173ffffffffffffffffffffffffffffffffffffffff021916908373ffffffffffffffffffffffffffffffffffffffff1602179055506009600081548092919061137e9061226b565b91905055505050505050565b600460009054906101000a900473ffffffffffffffffffffffffffffffffffffffff1681565b60008060003373ffffffffffffffffffffffffffffffffffffffff1673ffffffffffffffffffffffffffffffffffffffff16815260200190815260200160002090506000816001015411611439576040517f08c379a000000000000000000000000000000000000000000000000000000000815260040161143090611ecd565b60405180910390fd5b8060020160009054906101000a900460ff161561148b576040517f08c379a000000000000000000000000000000000000000000000000000000000815260040161148290611e8d565b60405180910390fd5b6008544710156114d0576040517f08c379a00000000000000000000000000000000000000000000000000000000081526004016114c790611fed565b60405180910390fd5b60018160020160006101000a81548160ff02191690831515021790555060003373ffffffffffffffffffffffffffffffffffffffff166008545a9060405161151790611daf565b600060405180830381858888f193505050503d8060008114611555576040519150601f19603f3d011682016040523d82523d6000602084013e61155a565b606091505b505090508061159e576040517f08c379a000000000000000000000000000000000000000000000000000000000815260040161159590611f4d565b60405180910390fd5b3373ffffffffffffffffffffffffffffffffffffffff167f106f923f993c2149d49b4255ff723acafa1f2d94393f561d3eda32ae348f72416008546040516115e6919061200d565b60405180910390a26115f6610d65565b60068190555060006008819055505050565b60006020528060005260406000206000915090508060000160009054906101000a900473ffffffffffffffffffffffffffffffffffffffff16908060010154908060020160009054906101000a900460ff16905083565b60065481565b60085481565b82805461167790612239565b90600052602060002090601f01602090048101928261169957600085556116e0565b82601f106116b257805160ff19168380011785556116e0565b828001600101855582156116e0579182015b828111156116df5782518255916020019190600101906116c4565b5b5090506116ed91906116f1565b5090565b5b8082111561170a5760008160009055506001016116f2565b5090565b600061172161171c846120ce565b61209d565b90508281526020810184848401111561173957600080fd5b6117448482856121f7565b509392505050565b60008135905061175b81612352565b92915050565b600082601f83011261177257600080fd5b813561178284826020860161170e565b91505092915050565b60008135905061179a81612369565b92915050565b6000602082840312156117b257600080fd5b60006117c08482850161174c565b91505092915050565b6000806000606084860312156117de57600080fd5b600084013567ffffffffffffffff8111156117f857600080fd5b61180486828701611761565b93505060206118158682870161178b565b92505060406118268682870161174c565b9150509250925092565b60006020828403121561184257600080fd5b60006118508482850161178b565b91505092915050565b611862816121af565b82525050565b611871816121c1565b82525050565b6000611882826120fe565b61188c8185612114565b935061189c818560208601612206565b6118a581612341565b840191505092915050565b60006118bd602e83612114565b91507f4f6e6c792074686520636861726974792063616e20736574207468652072656360008301527f656976657220616464726573732e0000000000000000000000000000000000006020830152604082019050919050565b6000611923601883612114565b91507f50726f64756374207075726368617365206661696c65642e00000000000000006000830152602082019050919050565b6000611963602e83612114565b91507f5265776172642068617320616c7265616479206265656e20636c61696d65642060008301527f6279207468652063616c6c65722e0000000000000000000000000000000000006020830152604082019050919050565b60006119c9601383612114565b91507f496e76616c69642070726f647563742049442e000000000000000000000000006000830152602082019050919050565b6000611a09602083612114565b91507f4e6f20646f6e6174696f6e73206d616465206279207468652063616c6c65722e6000830152602082019050919050565b6000611a49601283612114565b91507f5769746864726177616c206661696c65642e00000000000000000000000000006000830152602082019050919050565b6000611a89602d83612114565b91507f4f6e6c792074686520636861726974792063616e20736574207468652063686160008301527f7269747920616464726573732e000000000000000000000000000000000000006020830152604082019050919050565b6000611aef603e83612114565b91507f436f6e747261637420646f6573206e6f74206861766520656e6f75676820626160008301527f6c616e636520746f207075726368617365207468652070726f647563742e00006020830152604082019050919050565b6000611b55601483612114565b91507f52657761726420636c61696d206661696c65642e0000000000000000000000006000830152602082019050919050565b6000611b95602283612114565b91507f4f6e6c792074686520636861726974792063616e206164642070726f6475637460008301527f732e0000000000000000000000000000000000000000000000000000000000006020830152604082019050919050565b6000611bfb602283612114565b91507f546865726520617265206e6f20646f6e6174696f6e7320746f2077697468647260008301527f61770000000000000000000000000000000000000000000000000000000000006020830152604082019050919050565b6000611c61600083612109565b9150600082019050919050565b6000611c7b602c83612114565b91507f4f6e6c792074686520636861726974792063616e20776974686472617720746860008301527f6520646f6e6174696f6e732e00000000000000000000000000000000000000006020830152604082019050919050565b6000611ce1602c83612114565b91507f446f6e6174696f6e20616d6f756e742073686f756c642062652067726561746560008301527f72207468616e207a65726f2e00000000000000000000000000000000000000006020830152604082019050919050565b6000611d47603883612114565b91507f436f6e747261637420646f6573206e6f74206861766520656e6f75676820626160008301527f6c616e636520746f2070617920746865207265776172642e00000000000000006020830152604082019050919050565b611da9816121ed565b82525050565b6000611dba82611c54565b9150819050919050565b6000602082019050611dd96000830184611859565b92915050565b6000606082019050611df46000830186611859565b611e016020830185611da0565b611e0e6040830184611868565b949350505050565b6000606082019050611e2b6000830186611859565b611e386020830185611da0565b611e456040830184611da0565b949350505050565b60006020820190508181036000830152611e66816118b0565b9050919050565b60006020820190508181036000830152611e8681611916565b9050919050565b60006020820190508181036000830152611ea681611956565b9050919050565b60006020820190508181036000830152611ec6816119bc565b9050919050565b60006020820190508181036000830152611ee6816119fc565b9050919050565b60006020820190508181036000830152611f0681611a3c565b9050919050565b60006020820190508181036000830152611f2681611a7c565b9050919050565b60006020820190508181036000830152611f4681611ae2565b9050919050565b60006020820190508181036000830152611f6681611b48565b9050919050565b60006020820190508181036000830152611f8681611b88565b9050919050565b60006020820190508181036000830152611fa681611bee565b9050919050565b60006020820190508181036000830152611fc681611c6e565b9050919050565b60006020820190508181036000830152611fe681611cd4565b9050919050565b6000602082019050818103600083015261200681611d3a565b9050919050565b60006020820190506120226000830184611da0565b92915050565b600060808201905061203d6000830187611da0565b818103602083015261204f8186611877565b905061205e6040830185611da0565b61206b6060830184611859565b95945050505050565b60006040820190506120896000830185611da0565b6120966020830184611da0565b9392505050565b6000604051905081810181811067ffffffffffffffff821117156120c4576120c3612312565b5b8060405250919050565b600067ffffffffffffffff8211156120e9576120e8612312565b5b601f19601f8301169050602081019050919050565b600081519050919050565b600081905092915050565b600082825260208201905092915050565b6000612130826121ed565b915061213b836121ed565b9250827fffffffffffffffffffffffffffffffffffffffffffffffffffffffffffffffff038211156121705761216f6122b4565b5b828201905092915050565b6000612186826121ed565b9150612191836121ed565b9250828210156121a4576121a36122b4565b5b828203905092915050565b60006121ba826121cd565b9050919050565b60008115159050919050565b600073ffffffffffffffffffffffffffffffffffffffff82169050919050565b6000819050919050565b82818337600083830152505050565b60005b83811015612224578082015181840152602081019050612209565b83811115612233576000848401525b50505050565b6000600282049050600182168061225157607f821691505b60208210811415612265576122646122e3565b5b50919050565b6000612276826121ed565b91507fffffffffffffffffffffffffffffffffffffffffffffffffffffffffffffffff8214156122a9576122a86122b4565b5b600182019050919050565b7f4e487b7100000000000000000000000000000000000000000000000000000000600052601160045260246000fd5b7f4e487b7100000000000000000000000000000000000000000000000000000000600052602260045260246000fd5b7f4e487b7100000000000000000000000000000000000000000000000000000000600052604160045260246000fd5b6000601f19601f8301169050919050565b61235b816121af565b811461236657600080fd5b50565b612372816121ed565b811461237d57600080fd5b5056fea26469706673582212204450833a3428e5ab90b1e74df25ec85da324d2624fa9d927783656e250820b9164736f6c63430008000033",
  "immutableReferences": {},
  "source": "// SPDX-License-Identifier: MIT\npragma solidity ^0.8.0;\n\ncontract Donation {\n    struct Donor {\n        address donorAddress;\n        uint256 donationAmount;\n        bool rewarded; //  \n    }\n\n    struct Product {\n        uint256 productId;\n        string name;\n        uint256 price;\n        address sellerAddress;\n    }\n\n    struct Purchase {\n        address buyer;\n        uint256 productId;\n        uint256 purchaseAmount;\n    }\n\n    mapping(address => Donor) public donors;\n    mapping(uint256 => Product) public products; //    \n    mapping(uint256 => address) public productSellers; //  ID     \n    mapping(uint256 => Purchase) public purchases;\n\n    address public charityAddress;\n    address public receiverAddress; //   \n    uint256 public totalDonations;\n    uint256 public withdrawnAmount;\n    uint256 public rewardAmount; //  \n    uint256 public projectCount; //  \n    uint256 public purchaseCount;\n\n    event DonationReceived(address indexed donor, uint256 amount);\n    event DonationWithdrawn(address indexed receiver, uint256 amount);\n    event RewardClaimed(address indexed donor, uint256 amount);\n    event ProductPurchased(address indexed buyer, uint256 productId, uint256 price);\n    \n    constructor(address _receiverAddress) payable {\n        charityAddress = msg.sender;\n        receiverAddress = _receiverAddress;\n    }\n\n    function setReceiverAddress(address _receiverAddress) public {\n        require(msg.sender == receiverAddress, \"Only the charity can set the receiver address.\");\n        receiverAddress = _receiverAddress;\n    }\n    \n    function setCharityAddress(address _charityAddress) public {\n        require(msg.sender == charityAddress, \"Only the charity can set the charity address.\");\n        charityAddress = _charityAddress;\n    }\n\n    function donate(address _donorAddress) public payable {\n        require(msg.value > 0, \"Donation amount should be greater than zero.\");\n\n        Donor storage donor = donors[_donorAddress];\n        donor.donorAddress = _donorAddress;\n        donor.donationAmount += msg.value;\n        donor.rewarded = false;\n\n        totalDonations += msg.value;\n\n        emit DonationReceived(_donorAddress, msg.value);\n\n        //    \n        rewardAmount += 1 ether;\n    }\n\n    function getDonorDonation(address donorAddress) public view returns (uint256) {\n        return donors[donorAddress].donationAmount;\n    }\n\n    function claimReward() public {\n        Donor storage donor = donors[msg.sender];\n        require(donor.donationAmount > 0, \"No donations made by the caller.\");\n        require(!donor.rewarded, \"Reward has already been claimed by the caller.\");\n        require(address(this).balance >= rewardAmount, \"Contract does not have enough balance to pay the reward.\");\n\n        donor.rewarded = true;\n\n        (bool success, ) = payable(msg.sender).call{value: rewardAmount, gas: gasleft()}(\"\");\n        require(success, \"Reward claim failed.\");\n\n        emit RewardClaimed(msg.sender, rewardAmount);\n        totalDonations = getContractBalance();\n        rewardAmount = 0;\n    }\n\n    function withdrawDonations(address _receiverAddress) public {\n        require(msg.sender == charityAddress, \"Only the charity can withdraw the donations.\");\n        require(totalDonations > 0, \"There are no donations to withdraw\");\n\n         (bool success, ) = receiverAddress.call{value: totalDonations}(\"\");\n        require(success, \"Withdrawal failed.\");\n\n        withdrawnAmount += totalDonations;\n        emit DonationWithdrawn(_receiverAddress, totalDonations);\n\n        totalDonations = 0;\n    }\n\n    function getRewardAmount() public view returns (uint256)\n    {\n        return rewardAmount;\n    }\n\n    function getCharityAddress() public view returns (address) {\n        return charityAddress;\n    }\n\n    function getReceiverAddress() public view returns (address) {\n        return receiverAddress;\n    }\n\n    function getContractBalance() public view returns (uint256) {\n        return address(this).balance;\n    }\n\n    //   /  \n    function addProduct(string memory _name, uint256 _price, address _sellerAddress) public {\n        require(msg.sender == charityAddress, \"Only the charity can add products.\");\n        \n        uint256 productId = projectCount;\n        Product memory newProduct = Product(productId, _name, _price, _sellerAddress);\n        products[productId] = newProduct;\n        productSellers[productId] = _sellerAddress;\n        projectCount++;\n    }\n\n    function getProductsCount() public view returns (uint) {\n        return projectCount;\n    }\n\n    //    /       .\n    //      ,        .\n    function purchaseProduct(uint256 _productId) public {\n        require(donors[msg.sender].donationAmount > 0, \"No donations made by the caller.\");\n        require(!donors[msg.sender].rewarded, \"Reward has already been claimed by the caller.\");\n        require(address(this).balance >= rewardAmount, \"Contract does not have enough balance to pay the reward.\");\n        require(products[_productId].price > 0, \"Invalid product ID.\");\n\n        uint256 productPrice = products[_productId].price;\n        require(address(this).balance >= productPrice, \"Contract does not have enough balance to purchase the product.\");\n\n        donors[msg.sender].rewarded = true;\n\n        (bool success, ) = payable(products[_productId].sellerAddress).call{value: productPrice, gas: gasleft()}(\"\");\n        require(success, \"Product purchase failed.\");\n\n        //   \n        Purchase memory newPurchase = Purchase(msg.sender, _productId, productPrice);\n        purchases[purchaseCount] = newPurchase;\n        purchaseCount++;\n\n        totalDonations = getContractBalance();\n\n        emit ProductPurchased(msg.sender, _productId, productPrice);\n        rewardAmount -= productPrice;\n        getRewardAmount();\n    }\n\n\n}\n",
  "sourcePath": "C:\\Users\\\\Desktop\\ 4 1\\-T\\project\\contracts\\Donation.sol",
  "compiler": {
    "name": "solc",
    "version": "0.8.0+commit.c7dfd78e.Emscripten.clang"
  },
  "schemaVersion": "3.4.14",
  "updatedAt": "2023-06-05T12:37:52.748Z",
  "networkType": "ethereum",
  "devdoc": {
    "kind": "dev",
    "methods": {},
    "version": 1
  },
  "userdoc": {
    "kind": "user",
    "methods": {},
    "version": 1
  }
}