{
  "contractName": "Donation",
  "abi": [
    {
      "inputs": [
        {
          "internalType": "address",
          "name": "_receiverAddress",
          "type": "address"
        }
      ],
      "stateMutability": "payable",
      "type": "constructor",
      "payable": true
    },
    {
      "anonymous": false,
      "inputs": [
        {
          "indexed": true,
          "internalType": "address",
          "name": "donor",
          "type": "address"
        },
        {
          "indexed": false,
          "internalType": "uint256",
          "name": "amount",
          "type": "uint256"
        }
      ],
      "name": "DonationReceived",
      "type": "event"
    },
    {
      "anonymous": false,
      "inputs": [
        {
          "indexed": true,
          "internalType": "address",
          "name": "receiver",
          "type": "address"
        },
        {
          "indexed": false,
          "internalType": "uint256",
          "name": "amount",
          "type": "uint256"
        }
      ],
      "name": "DonationWithdrawn",
      "type": "event"
    },
    {
      "anonymous": false,
      "inputs": [
        {
          "indexed": true,
          "internalType": "address",
          "name": "donor",
          "type": "address"
        },
        {
          "indexed": false,
          "internalType": "uint256",
          "name": "amount",
          "type": "uint256"
        }
      ],
      "name": "RewardClaimed",
      "type": "event"
    },
    {
      "anonymous": false,
      "inputs": [
        {
          "indexed": true,
          "internalType": "address",
          "name": "donor",
          "type": "address"
        },
        {
          "indexed": false,
          "internalType": "uint256",
          "name": "amount",
          "type": "uint256"
        }
      ],
      "name": "RewardWithdrawn",
      "type": "event"
    },
    {
      "inputs": [],
      "name": "charityAddress",
      "outputs": [
        {
          "internalType": "address",
          "name": "",
          "type": "address"
        }
      ],
      "stateMutability": "view",
      "type": "function",
      "constant": true
    },
    {
      "inputs": [
        {
          "internalType": "address",
          "name": "",
          "type": "address"
        }
      ],
      "name": "donors",
      "outputs": [
        {
          "internalType": "address",
          "name": "donorAddress",
          "type": "address"
        },
        {
          "internalType": "uint256",
          "name": "donationAmount",
          "type": "uint256"
        },
        {
          "internalType": "bool",
          "name": "rewarded",
          "type": "bool"
        }
      ],
      "stateMutability": "view",
      "type": "function",
      "constant": true
    },
    {
      "inputs": [],
      "name": "receiverAddress",
      "outputs": [
        {
          "internalType": "address",
          "name": "",
          "type": "address"
        }
      ],
      "stateMutability": "view",
      "type": "function",
      "constant": true
    },
    {
      "inputs": [],
      "name": "rewardAmount",
      "outputs": [
        {
          "internalType": "uint256",
          "name": "",
          "type": "uint256"
        }
      ],
      "stateMutability": "view",
      "type": "function",
      "constant": true
    },
    {
      "inputs": [],
      "name": "totalDonations",
      "outputs": [
        {
          "internalType": "uint256",
          "name": "",
          "type": "uint256"
        }
      ],
      "stateMutability": "view",
      "type": "function",
      "constant": true
    },
    {
      "inputs": [],
      "name": "withdrawnAmount",
      "outputs": [
        {
          "internalType": "uint256",
          "name": "",
          "type": "uint256"
        }
      ],
      "stateMutability": "view",
      "type": "function",
      "constant": true
    },
    {
      "inputs": [
        {
          "internalType": "address",
          "name": "_receiverAddress",
          "type": "address"
        }
      ],
      "name": "setReceiverAddress",
      "outputs": [],
      "stateMutability": "nonpayable",
      "type": "function"
    },
    {
      "inputs": [],
      "name": "donate",
      "outputs": [],
      "stateMutability": "payable",
      "type": "function",
      "payable": true
    },
    {
      "inputs": [
        {
          "internalType": "address",
          "name": "donorAddress",
          "type": "address"
        }
      ],
      "name": "getDonorDonation",
      "outputs": [
        {
          "internalType": "uint256",
          "name": "",
          "type": "uint256"
        }
      ],
      "stateMutability": "view",
      "type": "function",
      "constant": true
    },
    {
      "inputs": [],
      "name": "claimReward",
      "outputs": [],
      "stateMutability": "nonpayable",
      "type": "function"
    },
    {
      "inputs": [],
      "name": "withdrawDonations",
      "outputs": [],
      "stateMutability": "nonpayable",
      "type": "function"
    },
    {
      "inputs": [],
      "name": "withdrawReward",
      "outputs": [],
      "stateMutability": "nonpayable",
      "type": "function"
    }
  ],
  "bytecode": "0x6080604052670de0b6b3a7640000600555604051620013b0380380620013b0833981810160405281019061003391906100d0565b33600160006101000a81548173ffffffffffffffffffffffffffffffffffffffff021916908373ffffffffffffffffffffffffffffffffffffffff16021790555080600260006101000a81548173ffffffffffffffffffffffffffffffffffffffff021916908373ffffffffffffffffffffffffffffffffffffffff16021790555050610142565b6000815190506100ca8161012b565b92915050565b6000602082840312156100e257600080fd5b60006100f0848285016100bb565b91505092915050565b60006101048261010b565b9050919050565b600073ffffffffffffffffffffffffffffffffffffffff82169050919050565b610134816100f9565b811461013f57600080fd5b50565b61125e80620001526000396000f3fe6080604052600436106100a75760003560e01c8063c885bc5811610064578063c885bc58146101aa578063ca0cdea8146101c1578063ce1b088a14610200578063de2ed89314610217578063ed88c68e14610242578063f7b2a7be1461024c576100a7565b806315c6cba8146100ac57806316fed3e2146100e95780638279c7db14610114578063830de4b11461013d578063afcf2fc414610168578063b88a802f14610193575b600080fd5b3480156100b857600080fd5b506100d360048036038101906100ce9190610b6c565b610277565b6040516100e0919061110d565b60405180910390f35b3480156100f557600080fd5b506100fe6102c2565b60405161010b9190610f7b565b60405180910390f35b34801561012057600080fd5b5061013b60048036038101906101369190610b6c565b6102e8565b005b34801561014957600080fd5b506101526103bc565b60405161015f919061110d565b60405180910390f35b34801561017457600080fd5b5061017d6103c2565b60405161018a9190610f7b565b60405180910390f35b34801561019f57600080fd5b506101a86103e8565b005b3480156101b657600080fd5b506101bf610578565b005b3480156101cd57600080fd5b506101e860048036038101906101e39190610b6c565b61072d565b6040516101f793929190610f96565b60405180910390f35b34801561020c57600080fd5b50610215610784565b005b34801561022357600080fd5b5061022c6109c1565b604051610239919061110d565b60405180910390f35b61024a6109c7565b005b34801561025857600080fd5b50610261610b51565b60405161026e919061110d565b60405180910390f35b60008060008373ffffffffffffffffffffffffffffffffffffffff1673ffffffffffffffffffffffffffffffffffffffff168152602001908152602001600020600101549050919050565b600260009054906101000a900473ffffffffffffffffffffffffffffffffffffffff1681565b600160009054906101000a900473ffffffffffffffffffffffffffffffffffffffff1673ffffffffffffffffffffffffffffffffffffffff163373ffffffffffffffffffffffffffffffffffffffff1614610378576040517f08c379a000000000000000000000000000000000000000000000000000000000815260040161036f90610fcd565b60405180910390fd5b80600260006101000a81548173ffffffffffffffffffffffffffffffffffffffff021916908373ffffffffffffffffffffffffffffffffffffffff16021790555050565b60045481565b600160009054906101000a900473ffffffffffffffffffffffffffffffffffffffff1681565b60008060003373ffffffffffffffffffffffffffffffffffffffff1673ffffffffffffffffffffffffffffffffffffffff16815260200190815260200160002090506000816001015411610471576040517f08c379a00000000000000000000000000000000000000000000000000000000081526004016104689061100d565b60405180910390fd5b8060020160009054906101000a900460ff16156104c3576040517f08c379a00000000000000000000000000000000000000000000000000000000081526004016104ba90610fed565b60405180910390fd5b600554471015610508576040517f08c379a00000000000000000000000000000000000000000000000000000000081526004016104ff906110ed565b60405180910390fd5b60018160020160006101000a81548160ff0219169083151502179055503373ffffffffffffffffffffffffffffffffffffffff167f106f923f993c2149d49b4255ff723acafa1f2d94393f561d3eda32ae348f724160055460405161056d919061110d565b60405180910390a250565b60008060003373ffffffffffffffffffffffffffffffffffffffff1673ffffffffffffffffffffffffffffffffffffffff16815260200190815260200160002090508060020160009054906101000a900460ff1661060b576040517f08c379a0000000000000000000000000000000000000000000000000000000008152600401610602906110cd565b60405180910390fd5b60008160020160006101000a81548160ff02191690831515021790555060003373ffffffffffffffffffffffffffffffffffffffff166005545a9060405161065290610f66565b600060405180830381858888f193505050503d8060008114610690576040519150601f19603f3d011682016040523d82523d6000602084013e610695565b606091505b50509050806106d9576040517f08c379a00000000000000000000000000000000000000000000000000000000081526004016106d09061104d565b60405180910390fd5b3373ffffffffffffffffffffffffffffffffffffffff167f1d3eee4ca001cff39eec6ec7615aacf2f2bd61791273830728ba00ccbd6e1337600554604051610721919061110d565b60405180910390a25050565b60006020528060005260406000206000915090508060000160009054906101000a900473ffffffffffffffffffffffffffffffffffffffff16908060010154908060020160009054906101000a900460ff16905083565b600160009054906101000a900473ffffffffffffffffffffffffffffffffffffffff1673ffffffffffffffffffffffffffffffffffffffff163373ffffffffffffffffffffffffffffffffffffffff1614610814576040517f08c379a000000000000000000000000000000000000000000000000000000000815260040161080b9061108d565b60405180910390fd5b600060035411610859576040517f08c379a00000000000000000000000000000000000000000000000000000000081526004016108509061106d565b60405180910390fd5b6000600260009054906101000a900473ffffffffffffffffffffffffffffffffffffffff1673ffffffffffffffffffffffffffffffffffffffff166003546040516108a390610f66565b60006040518083038185875af1925050503d80600081146108e0576040519150601f19603f3d011682016040523d82523d6000602084013e6108e5565b606091505b5050905080610929576040517f08c379a00000000000000000000000000000000000000000000000000000000081526004016109209061102d565b60405180910390fd5b6003546004600082825461093d9190611144565b92505081905550600260009054906101000a900473ffffffffffffffffffffffffffffffffffffffff1673ffffffffffffffffffffffffffffffffffffffff167f84be5dad61c795759fa50da4da9ff0ffc28c522295c26854247b7d22728d8c016003546040516109ae919061110d565b60405180910390a2600060038190555050565b60035481565b60003411610a0a576040517f08c379a0000000000000000000000000000000000000000000000000000000008152600401610a01906110ad565b60405180910390fd5b60008060003373ffffffffffffffffffffffffffffffffffffffff1673ffffffffffffffffffffffffffffffffffffffff1681526020019081526020016000209050338160000160006101000a81548173ffffffffffffffffffffffffffffffffffffffff021916908373ffffffffffffffffffffffffffffffffffffffff16021790555034816001016000828254610aa39190611144565b9250508190555060008160020160006101000a81548160ff0219169083151502179055503460036000828254610ad99190611144565b925050819055503373ffffffffffffffffffffffffffffffffffffffff167f264f630d9efa0d07053a31163641d9fcc0adafc9d9e76f1c37c2ce3a558d2c5234604051610b26919061110d565b60405180910390a2662386f26fc1000060056000828254610b479190611144565b9250508190555050565b60055481565b600081359050610b6681611211565b92915050565b600060208284031215610b7e57600080fd5b6000610b8c84828501610b57565b91505092915050565b610b9e8161119a565b82525050565b610bad816111ac565b82525050565b6000610bc0602e83611133565b91507f4f6e6c792074686520636861726974792063616e20736574207468652072656360008301527f656976657220616464726573732e0000000000000000000000000000000000006020830152604082019050919050565b6000610c26602e83611133565b91507f5265776172642068617320616c7265616479206265656e20636c61696d65642060008301527f6279207468652063616c6c65722e0000000000000000000000000000000000006020830152604082019050919050565b6000610c8c602083611133565b91507f4e6f20646f6e6174696f6e73206d616465206279207468652063616c6c65722e6000830152602082019050919050565b6000610ccc601283611133565b91507f5769746864726177616c206661696c65642e00000000000000000000000000006000830152602082019050919050565b6000610d0c601483611133565b91507f52657761726420636c61696d206661696c65642e0000000000000000000000006000830152602082019050919050565b6000610d4c602283611133565b91507f546865726520617265206e6f20646f6e6174696f6e7320746f2077697468647260008301527f61770000000000000000000000000000000000000000000000000000000000006020830152604082019050919050565b6000610db2600083611128565b9150600082019050919050565b6000610dcc602c83611133565b91507f4f6e6c792074686520636861726974792063616e20776974686472617720746860008301527f6520646f6e6174696f6e732e00000000000000000000000000000000000000006020830152604082019050919050565b6000610e32602c83611133565b91507f446f6e6174696f6e20616d6f756e742073686f756c642062652067726561746560008301527f72207468616e207a65726f2e00000000000000000000000000000000000000006020830152604082019050919050565b6000610e98602e83611133565b91507f52657761726420686173206e6f74206265656e20636c61696d6564206279207460008301527f68652063616c6c6572207965742e0000000000000000000000000000000000006020830152604082019050919050565b6000610efe603883611133565b91507f436f6e747261637420646f6573206e6f74206861766520656e6f75676820626160008301527f6c616e636520746f2070617920746865207265776172642e00000000000000006020830152604082019050919050565b610f60816111d8565b82525050565b6000610f7182610da5565b9150819050919050565b6000602082019050610f906000830184610b95565b92915050565b6000606082019050610fab6000830186610b95565b610fb86020830185610f57565b610fc56040830184610ba4565b949350505050565b60006020820190508181036000830152610fe681610bb3565b9050919050565b6000602082019050818103600083015261100681610c19565b9050919050565b6000602082019050818103600083015261102681610c7f565b9050919050565b6000602082019050818103600083015261104681610cbf565b9050919050565b6000602082019050818103600083015261106681610cff565b9050919050565b6000602082019050818103600083015261108681610d3f565b9050919050565b600060208201905081810360008301526110a681610dbf565b9050919050565b600060208201905081810360008301526110c681610e25565b9050919050565b600060208201905081810360008301526110e681610e8b565b9050919050565b6000602082019050818103600083015261110681610ef1565b9050919050565b60006020820190506111226000830184610f57565b92915050565b600081905092915050565b600082825260208201905092915050565b600061114f826111d8565b915061115a836111d8565b9250827fffffffffffffffffffffffffffffffffffffffffffffffffffffffffffffffff0382111561118f5761118e6111e2565b5b828201905092915050565b60006111a5826111b8565b9050919050565b60008115159050919050565b600073ffffffffffffffffffffffffffffffffffffffff82169050919050565b6000819050919050565b7f4e487b7100000000000000000000000000000000000000000000000000000000600052601160045260246000fd5b61121a8161119a565b811461122557600080fd5b5056fea264697066735822122079b37f062d0953a6d735062ae83aae978a1e53d0b8e611a296226668f3cca1fd64736f6c63430008000033",
  "immutableReferences": {},
  "source": "// SPDX-License-Identifier: MIT\npragma solidity ^0.8.0;\n\ncontract Donation {\n    struct Donor {\n        address donorAddress;\n        uint256 donationAmount;\n        bool rewarded;\n    }\n\n    mapping(address => Donor) public donors;\n    address public charityAddress;\n    address public receiverAddress; //   \n    uint256 public totalDonations;\n    uint256 public withdrawnAmount;\n    uint256 public rewardAmount = 1 ether; //  \n\n    event DonationReceived(address indexed donor, uint256 amount);\n    event DonationWithdrawn(address indexed receiver, uint256 amount);\n    event RewardClaimed(address indexed donor, uint256 amount);\n    event RewardWithdrawn(address indexed donor, uint256 amount);\n    \n    constructor(address _receiverAddress) payable {\n        charityAddress = msg.sender;\n        receiverAddress = _receiverAddress;\n    }\n\n    function setReceiverAddress(address _receiverAddress) public {\n        require(msg.sender == charityAddress, \"Only the charity can set the receiver address.\");\n        receiverAddress = _receiverAddress;\n    }\n\n    function donate() public payable {\n        require(msg.value > 0, \"Donation amount should be greater than zero.\");\n\n        Donor storage donor = donors[msg.sender];\n        donor.donorAddress = msg.sender;\n        donor.donationAmount += msg.value;\n        donor.rewarded = false;\n\n        totalDonations += msg.value;\n\n        emit DonationReceived(msg.sender, msg.value);\n\n        //    \n        rewardAmount += 0.01 ether;\n    }\n\n    function getDonorDonation(address donorAddress) public view returns (uint256) {\n        return donors[donorAddress].donationAmount;\n    }\n\n    function claimReward() public {\n        Donor storage donor = donors[msg.sender];\n        require(donor.donationAmount > 0, \"No donations made by the caller.\");\n        require(!donor.rewarded, \"Reward has already been claimed by the caller.\");\n\n        require(address(this).balance >= rewardAmount, \"Contract does not have enough balance to pay the reward.\");\n\n        donor.rewarded = true;\n\n        emit RewardClaimed(msg.sender, rewardAmount);\n    }\n\n    function withdrawDonations() public {\n        require(msg.sender == charityAddress, \"Only the charity can withdraw the donations.\");\n        require(totalDonations > 0, \"There are no donations to withdraw\");\n\n        (bool success, ) = receiverAddress.call{value: totalDonations}(\"\");\n        require(success, \"Withdrawal failed.\");\n\n        withdrawnAmount += totalDonations;\n        emit DonationWithdrawn(receiverAddress, totalDonations);\n\n        totalDonations = 0;\n    }\n\n    function withdrawReward() public {\n        Donor storage donor = donors[msg.sender];\n        require(donor.rewarded, \"Reward has not been claimed by the caller yet.\");\n\n        donor.rewarded = false;\n\n        (bool success, ) = payable(msg.sender).call{value: rewardAmount, gas: gasleft()}(\"\");\n        require(success, \"Reward claim failed.\");\n\n        emit RewardWithdrawn(msg.sender, rewardAmount);\n    }\n}\n",
  "sourcePath": "C:\\Users\\\\Desktop\\ 4 1\\-T\\project\\contracts\\Donation.sol",
  "compiler": {
    "name": "solc",
    "version": "0.8.0+commit.c7dfd78e.Emscripten.clang"
  },
  "schemaVersion": "3.4.14",
  "updatedAt": "2023-05-28T10:22:52.234Z",
  "networkType": "ethereum",
  "devdoc": {
    "kind": "dev",
    "methods": {},
    "version": 1
  },
  "userdoc": {
    "kind": "user",
    "methods": {},
    "version": 1
  }
}