{
  "contractName": "Donation",
  "abi": [
    {
      "inputs": [
        {
          "internalType": "address",
          "name": "_receiverAddress",
          "type": "address"
        }
      ],
      "stateMutability": "payable",
      "type": "constructor",
      "payable": true
    },
    {
      "anonymous": false,
      "inputs": [
        {
          "indexed": true,
          "internalType": "address",
          "name": "donor",
          "type": "address"
        },
        {
          "indexed": false,
          "internalType": "uint256",
          "name": "amount",
          "type": "uint256"
        }
      ],
      "name": "DonationReceived",
      "type": "event"
    },
    {
      "anonymous": false,
      "inputs": [
        {
          "indexed": true,
          "internalType": "address",
          "name": "receiver",
          "type": "address"
        },
        {
          "indexed": false,
          "internalType": "uint256",
          "name": "amount",
          "type": "uint256"
        }
      ],
      "name": "DonationWithdrawn",
      "type": "event"
    },
    {
      "anonymous": false,
      "inputs": [
        {
          "indexed": true,
          "internalType": "address",
          "name": "buyer",
          "type": "address"
        },
        {
          "indexed": false,
          "internalType": "uint256",
          "name": "productId",
          "type": "uint256"
        },
        {
          "indexed": false,
          "internalType": "uint256",
          "name": "price",
          "type": "uint256"
        }
      ],
      "name": "ProductPurchased",
      "type": "event"
    },
    {
      "anonymous": false,
      "inputs": [
        {
          "indexed": true,
          "internalType": "address",
          "name": "donor",
          "type": "address"
        },
        {
          "indexed": false,
          "internalType": "uint256",
          "name": "amount",
          "type": "uint256"
        }
      ],
      "name": "RewardClaimed",
      "type": "event"
    },
    {
      "inputs": [],
      "name": "charityAddress",
      "outputs": [
        {
          "internalType": "address",
          "name": "",
          "type": "address"
        }
      ],
      "stateMutability": "view",
      "type": "function",
      "constant": true
    },
    {
      "inputs": [
        {
          "internalType": "address",
          "name": "",
          "type": "address"
        }
      ],
      "name": "donors",
      "outputs": [
        {
          "internalType": "address",
          "name": "donorAddress",
          "type": "address"
        },
        {
          "internalType": "uint256",
          "name": "donationAmount",
          "type": "uint256"
        },
        {
          "internalType": "bool",
          "name": "rewarded",
          "type": "bool"
        }
      ],
      "stateMutability": "view",
      "type": "function",
      "constant": true
    },
    {
      "inputs": [
        {
          "internalType": "uint256",
          "name": "",
          "type": "uint256"
        }
      ],
      "name": "productSellers",
      "outputs": [
        {
          "internalType": "address",
          "name": "",
          "type": "address"
        }
      ],
      "stateMutability": "view",
      "type": "function",
      "constant": true
    },
    {
      "inputs": [
        {
          "internalType": "uint256",
          "name": "",
          "type": "uint256"
        }
      ],
      "name": "products",
      "outputs": [
        {
          "internalType": "uint256",
          "name": "productId",
          "type": "uint256"
        },
        {
          "internalType": "string",
          "name": "name",
          "type": "string"
        },
        {
          "internalType": "uint256",
          "name": "price",
          "type": "uint256"
        },
        {
          "internalType": "address",
          "name": "charityAddress",
          "type": "address"
        }
      ],
      "stateMutability": "view",
      "type": "function",
      "constant": true
    },
    {
      "inputs": [],
      "name": "projectCount",
      "outputs": [
        {
          "internalType": "uint256",
          "name": "",
          "type": "uint256"
        }
      ],
      "stateMutability": "view",
      "type": "function",
      "constant": true
    },
    {
      "inputs": [],
      "name": "purchaseCount",
      "outputs": [
        {
          "internalType": "uint256",
          "name": "",
          "type": "uint256"
        }
      ],
      "stateMutability": "view",
      "type": "function",
      "constant": true
    },
    {
      "inputs": [
        {
          "internalType": "uint256",
          "name": "",
          "type": "uint256"
        }
      ],
      "name": "purchases",
      "outputs": [
        {
          "internalType": "address",
          "name": "buyer",
          "type": "address"
        },
        {
          "internalType": "string",
          "name": "productName",
          "type": "string"
        },
        {
          "internalType": "uint256",
          "name": "productId",
          "type": "uint256"
        },
        {
          "internalType": "uint256",
          "name": "purchaseAmount",
          "type": "uint256"
        }
      ],
      "stateMutability": "view",
      "type": "function",
      "constant": true
    },
    {
      "inputs": [],
      "name": "receiverAddress",
      "outputs": [
        {
          "internalType": "address",
          "name": "",
          "type": "address"
        }
      ],
      "stateMutability": "view",
      "type": "function",
      "constant": true
    },
    {
      "inputs": [],
      "name": "rewardAmount",
      "outputs": [
        {
          "internalType": "uint256",
          "name": "",
          "type": "uint256"
        }
      ],
      "stateMutability": "view",
      "type": "function",
      "constant": true
    },
    {
      "inputs": [],
      "name": "totalDonations",
      "outputs": [
        {
          "internalType": "uint256",
          "name": "",
          "type": "uint256"
        }
      ],
      "stateMutability": "view",
      "type": "function",
      "constant": true
    },
    {
      "inputs": [],
      "name": "withdrawnAmount",
      "outputs": [
        {
          "internalType": "uint256",
          "name": "",
          "type": "uint256"
        }
      ],
      "stateMutability": "view",
      "type": "function",
      "constant": true
    },
    {
      "inputs": [
        {
          "internalType": "address",
          "name": "_receiverAddress",
          "type": "address"
        }
      ],
      "name": "setReceiverAddress",
      "outputs": [],
      "stateMutability": "nonpayable",
      "type": "function"
    },
    {
      "inputs": [
        {
          "internalType": "address",
          "name": "_charityAddress",
          "type": "address"
        }
      ],
      "name": "setCharityAddress",
      "outputs": [],
      "stateMutability": "nonpayable",
      "type": "function"
    },
    {
      "inputs": [
        {
          "internalType": "address",
          "name": "_donorAddress",
          "type": "address"
        }
      ],
      "name": "donate",
      "outputs": [],
      "stateMutability": "payable",
      "type": "function",
      "payable": true
    },
    {
      "inputs": [
        {
          "internalType": "address",
          "name": "donorAddress",
          "type": "address"
        }
      ],
      "name": "getDonorDonation",
      "outputs": [
        {
          "internalType": "uint256",
          "name": "",
          "type": "uint256"
        }
      ],
      "stateMutability": "view",
      "type": "function",
      "constant": true
    },
    {
      "inputs": [],
      "name": "claimReward",
      "outputs": [],
      "stateMutability": "nonpayable",
      "type": "function"
    },
    {
      "inputs": [
        {
          "internalType": "address",
          "name": "_receiverAddress",
          "type": "address"
        }
      ],
      "name": "withdrawDonations",
      "outputs": [],
      "stateMutability": "nonpayable",
      "type": "function"
    },
    {
      "inputs": [],
      "name": "getCharityAddress",
      "outputs": [
        {
          "internalType": "address",
          "name": "",
          "type": "address"
        }
      ],
      "stateMutability": "view",
      "type": "function",
      "constant": true
    },
    {
      "inputs": [],
      "name": "getReceiverAddress",
      "outputs": [
        {
          "internalType": "address",
          "name": "",
          "type": "address"
        }
      ],
      "stateMutability": "view",
      "type": "function",
      "constant": true
    },
    {
      "inputs": [],
      "name": "getContractBalance",
      "outputs": [
        {
          "internalType": "uint256",
          "name": "",
          "type": "uint256"
        }
      ],
      "stateMutability": "view",
      "type": "function",
      "constant": true
    },
    {
      "inputs": [
        {
          "internalType": "string",
          "name": "_name",
          "type": "string"
        },
        {
          "internalType": "uint256",
          "name": "_price",
          "type": "uint256"
        },
        {
          "internalType": "address",
          "name": "_sellerAddress",
          "type": "address"
        }
      ],
      "name": "addProduct",
      "outputs": [],
      "stateMutability": "nonpayable",
      "type": "function"
    },
    {
      "inputs": [],
      "name": "getProductsCount",
      "outputs": [
        {
          "internalType": "uint256",
          "name": "",
          "type": "uint256"
        }
      ],
      "stateMutability": "view",
      "type": "function",
      "constant": true
    },
    {
      "inputs": [
        {
          "internalType": "uint256",
          "name": "_productId",
          "type": "uint256"
        }
      ],
      "name": "getProduct",
      "outputs": [
        {
          "internalType": "string",
          "name": "",
          "type": "string"
        },
        {
          "internalType": "uint256",
          "name": "",
          "type": "uint256"
        },
        {
          "internalType": "address",
          "name": "",
          "type": "address"
        }
      ],
      "stateMutability": "view",
      "type": "function",
      "constant": true
    },
    {
      "inputs": [
        {
          "internalType": "uint256",
          "name": "_productId",
          "type": "uint256"
        }
      ],
      "name": "purchaseProduct",
      "outputs": [],
      "stateMutability": "payable",
      "type": "function",
      "payable": true
    },
    {
      "inputs": [],
      "name": "getRewardAmount",
      "outputs": [
        {
          "internalType": "uint256",
          "name": "",
          "type": "uint256"
        }
      ],
      "stateMutability": "view",
      "type": "function",
      "constant": true
    }
  ],
  "bytecode": "0x608060405260405162002666380380620026668339818101604052810190620000299190620000c9565b33600460006101000a81548173ffffffffffffffffffffffffffffffffffffffff021916908373ffffffffffffffffffffffffffffffffffffffff16021790555080600560006101000a81548173ffffffffffffffffffffffffffffffffffffffff021916908373ffffffffffffffffffffffffffffffffffffffff1602179055505062000143565b600081519050620000c38162000129565b92915050565b600060208284031215620000dc57600080fd5b6000620000ec84828501620000b2565b91505092915050565b6000620001028262000109565b9050919050565b600073ffffffffffffffffffffffffffffffffffffffff82169050919050565b6200013481620000f5565b81146200014057600080fd5b50565b61251380620001536000396000f3fe6080604052600436106101655760003560e01c80637acc0b20116100d1578063a8ff20f91161008a578063b9db15b411610064578063b9db15b414610505578063ca0cdea814610544578063de2ed89314610583578063f7b2a7be146105ae57610165565b8063a8ff20f91461049a578063afcf2fc4146104c3578063b88a802f146104ee57610165565b80637acc0b20146103605780638279c7db146103a0578063830de4b1146103c95780638392fe31146103f45780638c7384e614610434578063a56f5b531461047157610165565b80632b85ed9c116101235780632b85ed9c1461026d57806336fbad261461029857806338e76a03146102c3578063531ebce5146102df5780635786fd401461030a5780636f9fb98a1461033557610165565b8062362a951461016a57806309a69f57146101865780630c9be46d146101b157806315c6cba8146101da57806316fed3e2146102175780631ad0639314610242575b600080fd5b610184600480360381019061017f91906118de565b6105d9565b005b34801561019257600080fd5b5061019b61076c565b6040516101a8919061219e565b60405180910390f35b3480156101bd57600080fd5b506101d860048036038101906101d391906118de565b610776565b005b3480156101e657600080fd5b5061020160048036038101906101fc91906118de565b61084a565b60405161020e919061219e565b60405180910390f35b34801561022357600080fd5b5061022c610895565b6040516102399190611f02565b60405180910390f35b34801561024e57600080fd5b506102576108bb565b6040516102649190611f02565b60405180910390f35b34801561027957600080fd5b506102826108e5565b60405161028f919061219e565b60405180910390f35b3480156102a457600080fd5b506102ad6108eb565b6040516102ba919061219e565b60405180910390f35b6102dd60048036038101906102d8919061196e565b6108f1565b005b3480156102eb57600080fd5b506102f4610c79565b6040516103019190611f02565b60405180910390f35b34801561031657600080fd5b5061031f610ca3565b60405161032c919061219e565b60405180910390f35b34801561034157600080fd5b5061034a610cad565b604051610357919061219e565b60405180910390f35b34801561036c57600080fd5b506103876004803603810190610382919061196e565b610cb5565b60405161039794939291906121b9565b60405180910390f35b3480156103ac57600080fd5b506103c760048036038101906103c291906118de565b610d8d565b005b3480156103d557600080fd5b506103de610e61565b6040516103eb919061219e565b60405180910390f35b34801561040057600080fd5b5061041b6004803603810190610416919061196e565b610e67565b60405161042b9493929190611f1d565b60405180910390f35b34801561044057600080fd5b5061045b6004803603810190610456919061196e565b610f3f565b6040516104689190611f02565b60405180910390f35b34801561047d57600080fd5b50610498600480360381019061049391906118de565b610f72565b005b3480156104a657600080fd5b506104c160048036038101906104bc9190611907565b61118e565b005b3480156104cf57600080fd5b506104d8611382565b6040516104e59190611f02565b60405180910390f35b3480156104fa57600080fd5b506105036113a8565b005b34801561051157600080fd5b5061052c6004803603810190610527919061196e565b611600565b60405161053b93929190611fa0565b60405180910390f35b34801561055057600080fd5b5061056b600480360381019061056691906118de565b611746565b60405161057a93929190611f69565b60405180910390f35b34801561058f57600080fd5b5061059861179d565b6040516105a5919061219e565b60405180910390f35b3480156105ba57600080fd5b506105c36117a3565b6040516105d0919061219e565b60405180910390f35b671bc16d674ec800003411610623576040517f08c379a000000000000000000000000000000000000000000000000000000000815260040161061a9061215e565b60405180910390fd5b60008060008373ffffffffffffffffffffffffffffffffffffffff1673ffffffffffffffffffffffffffffffffffffffff1681526020019081526020016000209050818160000160006101000a81548173ffffffffffffffffffffffffffffffffffffffff021916908373ffffffffffffffffffffffffffffffffffffffff160217905550348160010160008282546106bc91906122b6565b9250508190555060008160020160006101000a81548160ff02191690831515021790555034600660008282546106f291906122b6565b925050819055508173ffffffffffffffffffffffffffffffffffffffff167f264f630d9efa0d07053a31163641d9fcc0adafc9d9e76f1c37c2ce3a558d2c523460405161073f919061219e565b60405180910390a2670de0b6b3a76400006008600082825461076191906122b6565b925050819055505050565b6000600854905090565b600460009054906101000a900473ffffffffffffffffffffffffffffffffffffffff1673ffffffffffffffffffffffffffffffffffffffff163373ffffffffffffffffffffffffffffffffffffffff1614610806576040517f08c379a00000000000000000000000000000000000000000000000000000000081526004016107fd9061209e565b60405180910390fd5b80600460006101000a81548173ffffffffffffffffffffffffffffffffffffffff021916908373ffffffffffffffffffffffffffffffffffffffff16021790555050565b60008060008373ffffffffffffffffffffffffffffffffffffffff1673ffffffffffffffffffffffffffffffffffffffff168152602001908152602001600020600101549050919050565b600560009054906101000a900473ffffffffffffffffffffffffffffffffffffffff1681565b6000600460009054906101000a900473ffffffffffffffffffffffffffffffffffffffff16905090565b600a5481565b60095481565b600060016000838152602001908152602001600020600201541161094a576040517f08c379a00000000000000000000000000000000000000000000000000000000081526004016109419061203e565b60405180910390fd5b600060016000838152602001908152602001600020600101805461096d90612396565b80601f016020809104026020016040519081016040528092919081815260200182805461099990612396565b80156109e65780601f106109bb576101008083540402835291602001916109e6565b820191906000526020600020905b8154815290600101906020018083116109c957829003601f168201915b5050505050905060006001600084815260200190815260200160002060020154905080471015610a4b576040517f08c379a0000000000000000000000000000000000000000000000000000000008152600401610a42906120be565b60405180910390fd5b60006001600085815260200190815260200160002060030160009054906101000a900473ffffffffffffffffffffffffffffffffffffffff1673ffffffffffffffffffffffffffffffffffffffff16825a90604051610aa990611eed565b600060405180830381858888f193505050503d8060008114610ae7576040519150601f19603f3d011682016040523d82523d6000602084013e610aec565b606091505b5050905080610b30576040517f08c379a0000000000000000000000000000000000000000000000000000000008152600401610b2790611ffe565b60405180910390fd5b600060405180608001604052803373ffffffffffffffffffffffffffffffffffffffff1681526020018581526020018681526020018481525090508060036000600a54815260200190815260200160002060008201518160000160006101000a81548173ffffffffffffffffffffffffffffffffffffffff021916908373ffffffffffffffffffffffffffffffffffffffff1602179055506020820151816001019080519060200190610be49291906117a9565b506040820151816002015560608201518160030155905050600a6000815480929190610c0f906123c8565b9190505550610c1c610cad565b6006819055503373ffffffffffffffffffffffffffffffffffffffff167f228a5d93a19503d5154326b1b21603e2cdd97bda22fc58196235b4490659fc018685604051610c6a929190612205565b60405180910390a25050505050565b6000600560009054906101000a900473ffffffffffffffffffffffffffffffffffffffff16905090565b6000600954905090565b600047905090565b6001602052806000526040600020600091509050806000015490806001018054610cde90612396565b80601f0160208091040260200160405190810160405280929190818152602001828054610d0a90612396565b8015610d575780601f10610d2c57610100808354040283529160200191610d57565b820191906000526020600020905b815481529060010190602001808311610d3a57829003601f168201915b5050505050908060020154908060030160009054906101000a900473ffffffffffffffffffffffffffffffffffffffff16905084565b600560009054906101000a900473ffffffffffffffffffffffffffffffffffffffff1673ffffffffffffffffffffffffffffffffffffffff163373ffffffffffffffffffffffffffffffffffffffff1614610e1d576040517f08c379a0000000000000000000000000000000000000000000000000000000008152600401610e1490611fde565b60405180910390fd5b80600560006101000a81548173ffffffffffffffffffffffffffffffffffffffff021916908373ffffffffffffffffffffffffffffffffffffffff16021790555050565b60075481565b60036020528060005260406000206000915090508060000160009054906101000a900473ffffffffffffffffffffffffffffffffffffffff1690806001018054610eb090612396565b80601f0160208091040260200160405190810160405280929190818152602001828054610edc90612396565b8015610f295780601f10610efe57610100808354040283529160200191610f29565b820191906000526020600020905b815481529060010190602001808311610f0c57829003601f168201915b5050505050908060020154908060030154905084565b60026020528060005260406000206000915054906101000a900473ffffffffffffffffffffffffffffffffffffffff1681565b600460009054906101000a900473ffffffffffffffffffffffffffffffffffffffff1673ffffffffffffffffffffffffffffffffffffffff163373ffffffffffffffffffffffffffffffffffffffff1614611002576040517f08c379a0000000000000000000000000000000000000000000000000000000008152600401610ff99061213e565b60405180910390fd5b600060065411611047576040517f08c379a000000000000000000000000000000000000000000000000000000000815260040161103e9061211e565b60405180910390fd5b6000600560009054906101000a900473ffffffffffffffffffffffffffffffffffffffff1673ffffffffffffffffffffffffffffffffffffffff1660065460405161109190611eed565b60006040518083038185875af1925050503d80600081146110ce576040519150601f19603f3d011682016040523d82523d6000602084013e6110d3565b606091505b5050905080611117576040517f08c379a000000000000000000000000000000000000000000000000000000000815260040161110e9061207e565b60405180910390fd5b6006546007600082825461112b91906122b6565b925050819055508173ffffffffffffffffffffffffffffffffffffffff167f84be5dad61c795759fa50da4da9ff0ffc28c522295c26854247b7d22728d8c0160065460405161117a919061219e565b60405180910390a260006006819055505050565b600460009054906101000a900473ffffffffffffffffffffffffffffffffffffffff1673ffffffffffffffffffffffffffffffffffffffff163373ffffffffffffffffffffffffffffffffffffffff161461121e576040517f08c379a0000000000000000000000000000000000000000000000000000000008152600401611215906120fe565b60405180910390fd5b60006009549050600060405180608001604052808381526020018681526020018581526020018473ffffffffffffffffffffffffffffffffffffffff168152509050806001600084815260200190815260200160002060008201518160000155602082015181600101908051906020019061129a9291906117a9565b506040820151816002015560608201518160030160006101000a81548173ffffffffffffffffffffffffffffffffffffffff021916908373ffffffffffffffffffffffffffffffffffffffff160217905550905050600460009054906101000a900473ffffffffffffffffffffffffffffffffffffffff166002600084815260200190815260200160002060006101000a81548173ffffffffffffffffffffffffffffffffffffffff021916908373ffffffffffffffffffffffffffffffffffffffff16021790555060096000815480929190611376906123c8565b91905055505050505050565b600460009054906101000a900473ffffffffffffffffffffffffffffffffffffffff1681565b60008060003373ffffffffffffffffffffffffffffffffffffffff1673ffffffffffffffffffffffffffffffffffffffff16815260200190815260200160002090506000816001015411611431576040517f08c379a00000000000000000000000000000000000000000000000000000000081526004016114289061205e565b60405180910390fd5b8060020160009054906101000a900460ff1615611483576040517f08c379a000000000000000000000000000000000000000000000000000000000815260040161147a9061201e565b60405180910390fd5b6008544710156114c8576040517f08c379a00000000000000000000000000000000000000000000000000000000081526004016114bf9061217e565b60405180910390fd5b60018160020160006101000a81548160ff02191690831515021790555060003373ffffffffffffffffffffffffffffffffffffffff166008545a9060405161150f90611eed565b600060405180830381858888f193505050503d806000811461154d576040519150601f19603f3d011682016040523d82523d6000602084013e611552565b606091505b5050905080611596576040517f08c379a000000000000000000000000000000000000000000000000000000000815260040161158d906120de565b60405180910390fd5b3373ffffffffffffffffffffffffffffffffffffffff167f106f923f993c2149d49b4255ff723acafa1f2d94393f561d3eda32ae348f72416008546040516115de919061219e565b60405180910390a26115ee610cad565b60068190555060006008819055505050565b60606000806009548410611649576040517f08c379a00000000000000000000000000000000000000000000000000000000081526004016116409061203e565b60405180910390fd5b6001600085815260200190815260200160002060010160016000868152602001908152602001600020600201546001600087815260200190815260200160002060030160009054906101000a900473ffffffffffffffffffffffffffffffffffffffff168280546116b990612396565b80601f01602080910402602001604051908101604052809291908181526020018280546116e590612396565b80156117325780601f1061170757610100808354040283529160200191611732565b820191906000526020600020905b81548152906001019060200180831161171557829003601f168201915b505050505092509250925092509193909250565b60006020528060005260406000206000915090508060000160009054906101000a900473ffffffffffffffffffffffffffffffffffffffff16908060010154908060020160009054906101000a900460ff16905083565b60065481565b60085481565b8280546117b590612396565b90600052602060002090601f0160209004810192826117d7576000855561181e565b82601f106117f057805160ff191683800117855561181e565b8280016001018555821561181e579182015b8281111561181d578251825591602001919060010190611802565b5b50905061182b919061182f565b5090565b5b80821115611848576000816000905550600101611830565b5090565b600061185f61185a8461225f565b61222e565b90508281526020810184848401111561187757600080fd5b611882848285612354565b509392505050565b600081359050611899816124af565b92915050565b600082601f8301126118b057600080fd5b81356118c084826020860161184c565b91505092915050565b6000813590506118d8816124c6565b92915050565b6000602082840312156118f057600080fd5b60006118fe8482850161188a565b91505092915050565b60008060006060848603121561191c57600080fd5b600084013567ffffffffffffffff81111561193657600080fd5b6119428682870161189f565b9350506020611953868287016118c9565b92505060406119648682870161188a565b9150509250925092565b60006020828403121561198057600080fd5b600061198e848285016118c9565b91505092915050565b6119a08161230c565b82525050565b6119af8161231e565b82525050565b60006119c08261228f565b6119ca81856122a5565b93506119da818560208601612363565b6119e38161249e565b840191505092915050565b60006119fb602e836122a5565b91507f4f6e6c792074686520636861726974792063616e20736574207468652072656360008301527f656976657220616464726573732e0000000000000000000000000000000000006020830152604082019050919050565b6000611a616018836122a5565b91507f50726f64756374207075726368617365206661696c65642e00000000000000006000830152602082019050919050565b6000611aa1602e836122a5565b91507f5265776172642068617320616c7265616479206265656e20636c61696d65642060008301527f6279207468652063616c6c65722e0000000000000000000000000000000000006020830152604082019050919050565b6000611b076013836122a5565b91507f496e76616c69642070726f647563742049442e000000000000000000000000006000830152602082019050919050565b6000611b476020836122a5565b91507f4e6f20646f6e6174696f6e73206d616465206279207468652063616c6c65722e6000830152602082019050919050565b6000611b876012836122a5565b91507f5769746864726177616c206661696c65642e00000000000000000000000000006000830152602082019050919050565b6000611bc7602d836122a5565b91507f4f6e6c792074686520636861726974792063616e20736574207468652063686160008301527f7269747920616464726573732e000000000000000000000000000000000000006020830152604082019050919050565b6000611c2d603e836122a5565b91507f436f6e747261637420646f6573206e6f74206861766520656e6f75676820626160008301527f6c616e636520746f207075726368617365207468652070726f647563742e00006020830152604082019050919050565b6000611c936014836122a5565b91507f52657761726420636c61696d206661696c65642e0000000000000000000000006000830152602082019050919050565b6000611cd36022836122a5565b91507f4f6e6c792074686520636861726974792063616e206164642070726f6475637460008301527f732e0000000000000000000000000000000000000000000000000000000000006020830152604082019050919050565b6000611d396022836122a5565b91507f546865726520617265206e6f20646f6e6174696f6e7320746f2077697468647260008301527f61770000000000000000000000000000000000000000000000000000000000006020830152604082019050919050565b6000611d9f60008361229a565b9150600082019050919050565b6000611db9602c836122a5565b91507f4f6e6c792074686520636861726974792063616e20776974686472617720746860008301527f6520646f6e6174696f6e732e00000000000000000000000000000000000000006020830152604082019050919050565b6000611e1f602c836122a5565b91507f446f6e6174696f6e20616d6f756e742073686f756c642062652067726561746560008301527f72207468616e207a65726f2e00000000000000000000000000000000000000006020830152604082019050919050565b6000611e856038836122a5565b91507f436f6e747261637420646f6573206e6f74206861766520656e6f75676820626160008301527f6c616e636520746f2070617920746865207265776172642e00000000000000006020830152604082019050919050565b611ee78161234a565b82525050565b6000611ef882611d92565b9150819050919050565b6000602082019050611f176000830184611997565b92915050565b6000608082019050611f326000830187611997565b8181036020830152611f4481866119b5565b9050611f536040830185611ede565b611f606060830184611ede565b95945050505050565b6000606082019050611f7e6000830186611997565b611f8b6020830185611ede565b611f9860408301846119a6565b949350505050565b60006060820190508181036000830152611fba81866119b5565b9050611fc96020830185611ede565b611fd66040830184611997565b949350505050565b60006020820190508181036000830152611ff7816119ee565b9050919050565b6000602082019050818103600083015261201781611a54565b9050919050565b6000602082019050818103600083015261203781611a94565b9050919050565b6000602082019050818103600083015261205781611afa565b9050919050565b6000602082019050818103600083015261207781611b3a565b9050919050565b6000602082019050818103600083015261209781611b7a565b9050919050565b600060208201905081810360008301526120b781611bba565b9050919050565b600060208201905081810360008301526120d781611c20565b9050919050565b600060208201905081810360008301526120f781611c86565b9050919050565b6000602082019050818103600083015261211781611cc6565b9050919050565b6000602082019050818103600083015261213781611d2c565b9050919050565b6000602082019050818103600083015261215781611dac565b9050919050565b6000602082019050818103600083015261217781611e12565b9050919050565b6000602082019050818103600083015261219781611e78565b9050919050565b60006020820190506121b36000830184611ede565b92915050565b60006080820190506121ce6000830187611ede565b81810360208301526121e081866119b5565b90506121ef6040830185611ede565b6121fc6060830184611997565b95945050505050565b600060408201905061221a6000830185611ede565b6122276020830184611ede565b9392505050565b6000604051905081810181811067ffffffffffffffff821117156122555761225461246f565b5b8060405250919050565b600067ffffffffffffffff82111561227a5761227961246f565b5b601f19601f8301169050602081019050919050565b600081519050919050565b600081905092915050565b600082825260208201905092915050565b60006122c18261234a565b91506122cc8361234a565b9250827fffffffffffffffffffffffffffffffffffffffffffffffffffffffffffffffff0382111561230157612300612411565b5b828201905092915050565b60006123178261232a565b9050919050565b60008115159050919050565b600073ffffffffffffffffffffffffffffffffffffffff82169050919050565b6000819050919050565b82818337600083830152505050565b60005b83811015612381578082015181840152602081019050612366565b83811115612390576000848401525b50505050565b600060028204905060018216806123ae57607f821691505b602082108114156123c2576123c1612440565b5b50919050565b60006123d38261234a565b91507fffffffffffffffffffffffffffffffffffffffffffffffffffffffffffffffff82141561240657612405612411565b5b600182019050919050565b7f4e487b7100000000000000000000000000000000000000000000000000000000600052601160045260246000fd5b7f4e487b7100000000000000000000000000000000000000000000000000000000600052602260045260246000fd5b7f4e487b7100000000000000000000000000000000000000000000000000000000600052604160045260246000fd5b6000601f19601f8301169050919050565b6124b88161230c565b81146124c357600080fd5b50565b6124cf8161234a565b81146124da57600080fd5b5056fea2646970667358221220a4f9937a794154a3c995e3976cde0bceeef579d790c5ea5b2589f26c3d94601664736f6c63430008000033",
  "immutableReferences": {},
  "source": "// SPDX-License-Identifier: MIT\npragma solidity ^0.8.0;\n\ncontract Donation {\n    struct Donor {\n        address donorAddress;\n        uint256 donationAmount;\n        bool rewarded; //  \n    }\n\n    struct Product {\n        uint256 productId;\n        string name;\n        uint256 price;\n        address charityAddress;\n    }\n\n    struct Purchase {\n        address buyer;\n        string productName;\n        uint256 productId;\n        uint256 purchaseAmount;\n    }\n\n    mapping(address => Donor) public donors;\n    mapping(uint256 => Product) public products; //    \n    mapping(uint256 => address) public productSellers; //  ID     \n    mapping(uint256 => Purchase) public purchases;\n\n    address public charityAddress;\n    address public receiverAddress; //   \n    uint256 public totalDonations;\n    uint256 public withdrawnAmount;\n    uint256 public rewardAmount; //  \n    uint256 public projectCount; //  \n    uint256 public purchaseCount;\n\n    event DonationReceived(address indexed donor, uint256 amount);\n    event DonationWithdrawn(address indexed receiver, uint256 amount);\n    event RewardClaimed(address indexed donor, uint256 amount);\n    event ProductPurchased(address indexed buyer, uint256 productId, uint256 price);\n    \n    constructor(address _receiverAddress) payable {\n        charityAddress = msg.sender;\n        receiverAddress = _receiverAddress;\n    }\n\n    function setReceiverAddress(address _receiverAddress) public {\n        require(msg.sender == receiverAddress, \"Only the charity can set the receiver address.\");\n        receiverAddress = _receiverAddress;\n    }\n    \n    function setCharityAddress(address _charityAddress) public {\n        require(msg.sender == charityAddress, \"Only the charity can set the charity address.\");\n        charityAddress = _charityAddress;\n    }\n\n    function donate(address _donorAddress) public payable {\n        require(msg.value > 2 ether, \"Donation amount should be greater than zero.\");\n\n        Donor storage donor = donors[_donorAddress];\n        donor.donorAddress = _donorAddress;\n        donor.donationAmount += msg.value;\n        donor.rewarded = false;\n\n        totalDonations += msg.value;\n\n        emit DonationReceived(_donorAddress, msg.value);\n\n        //    \n        rewardAmount += 1 ether;\n    }\n\n    function getDonorDonation(address donorAddress) public view returns (uint256) {\n        return donors[donorAddress].donationAmount;\n    }\n\n    function claimReward() public {\n        Donor storage donor = donors[msg.sender];\n        require(donor.donationAmount > 0, \"No donations made by the caller.\");\n        require(!donor.rewarded, \"Reward has already been claimed by the caller.\");\n        require(address(this).balance >= rewardAmount, \"Contract does not have enough balance to pay the reward.\");\n\n        donor.rewarded = true;\n\n        (bool success, ) = payable(msg.sender).call{value: rewardAmount, gas: gasleft()}(\"\");\n        require(success, \"Reward claim failed.\");\n\n        emit RewardClaimed(msg.sender, rewardAmount);\n        totalDonations = getContractBalance();\n        rewardAmount = 0;\n    }\n\n    function withdrawDonations(address _receiverAddress) public {\n        require(msg.sender == charityAddress, \"Only the charity can withdraw the donations.\");\n        require(totalDonations > 0, \"There are no donations to withdraw\");\n\n         (bool success, ) = receiverAddress.call{value: totalDonations}(\"\");\n        require(success, \"Withdrawal failed.\");\n\n        withdrawnAmount += totalDonations;\n        emit DonationWithdrawn(_receiverAddress, totalDonations);\n\n        totalDonations = 0;\n    }\n\n    function getCharityAddress() public view returns (address) {\n        return charityAddress;\n    }\n\n    function getReceiverAddress() public view returns (address) {\n        return receiverAddress;\n    }\n\n    function getContractBalance() public view returns (uint256) {\n        return address(this).balance;\n    }\n\n    //   /  \n    function addProduct(string memory _name, uint256 _price, address _sellerAddress) public {\n        require(msg.sender == charityAddress, \"Only the charity can add products.\");\n        \n        uint256 productId = projectCount;\n        Product memory newProduct = Product(productId, _name, _price, _sellerAddress);\n        products[productId] = newProduct;\n        productSellers[productId] = charityAddress;\n        projectCount++;\n    }\n\n    function getProductsCount() public view returns (uint) {\n        return projectCount;\n    }\n    \n    function getProduct(uint256 _productId) public view returns (string memory, uint256, address) {\n        require(_productId < projectCount, \"Invalid product ID.\");\n        return (products[_productId].name, products[_productId].price, products[_productId].charityAddress);\n    }\n\n    function purchaseProduct(uint256 _productId) public payable{\n        require(products[_productId].price > 0, \"Invalid product ID.\");\n\n        string memory productName = products[_productId].name;\n        uint256 productPrice = products[_productId].price;\n        require(address(this).balance >= productPrice, \"Contract does not have enough balance to purchase the product.\");\n\n        (bool success, ) = products[_productId].charityAddress.call{value: productPrice, gas: gasleft()}(\"\");\n        require(success, \"Product purchase failed.\");\n\n\n        //   \n        Purchase memory newPurchase = Purchase(msg.sender, productName, _productId, productPrice);\n        purchases[purchaseCount] = newPurchase;\n        purchaseCount++;\n\n        totalDonations = getContractBalance();\n\n        emit ProductPurchased(msg.sender, _productId, productPrice);\n    }\n\n    function getRewardAmount() public view returns (uint256) {\n        return rewardAmount;\n    }\n\n\n}\n",
  "sourcePath": "C:\\Users\\\\Desktop\\ 4 1\\-T\\project\\contracts\\Donation.sol",
  "compiler": {
    "name": "solc",
    "version": "0.8.0+commit.c7dfd78e.Emscripten.clang"
  },
  "schemaVersion": "3.4.14",
  "updatedAt": "2023-06-18T03:54:19.724Z",
  "networkType": "ethereum",
  "devdoc": {
    "kind": "dev",
    "methods": {},
    "version": 1
  },
  "userdoc": {
    "kind": "user",
    "methods": {},
    "version": 1
  }
}