{
  "contractName": "Donation",
  "abi": [
    {
      "inputs": [
        {
          "internalType": "address",
          "name": "_receiverAddress",
          "type": "address"
        }
      ],
      "stateMutability": "payable",
      "type": "constructor",
      "payable": true
    },
    {
      "anonymous": false,
      "inputs": [
        {
          "indexed": true,
          "internalType": "address",
          "name": "donor",
          "type": "address"
        },
        {
          "indexed": false,
          "internalType": "uint256",
          "name": "amount",
          "type": "uint256"
        }
      ],
      "name": "DonationReceived",
      "type": "event"
    },
    {
      "anonymous": false,
      "inputs": [
        {
          "indexed": true,
          "internalType": "address",
          "name": "receiver",
          "type": "address"
        },
        {
          "indexed": false,
          "internalType": "uint256",
          "name": "amount",
          "type": "uint256"
        }
      ],
      "name": "DonationWithdrawn",
      "type": "event"
    },
    {
      "anonymous": false,
      "inputs": [
        {
          "indexed": true,
          "internalType": "address",
          "name": "donor",
          "type": "address"
        },
        {
          "indexed": false,
          "internalType": "uint256",
          "name": "amount",
          "type": "uint256"
        }
      ],
      "name": "RewardClaimed",
      "type": "event"
    },
    {
      "inputs": [],
      "name": "charityAddress",
      "outputs": [
        {
          "internalType": "address",
          "name": "",
          "type": "address"
        }
      ],
      "stateMutability": "view",
      "type": "function",
      "constant": true
    },
    {
      "inputs": [
        {
          "internalType": "address",
          "name": "",
          "type": "address"
        }
      ],
      "name": "donors",
      "outputs": [
        {
          "internalType": "address",
          "name": "donorAddress",
          "type": "address"
        },
        {
          "internalType": "uint256",
          "name": "donationAmount",
          "type": "uint256"
        },
        {
          "internalType": "bool",
          "name": "rewarded",
          "type": "bool"
        }
      ],
      "stateMutability": "view",
      "type": "function",
      "constant": true
    },
    {
      "inputs": [],
      "name": "receiverAddress",
      "outputs": [
        {
          "internalType": "address",
          "name": "",
          "type": "address"
        }
      ],
      "stateMutability": "view",
      "type": "function",
      "constant": true
    },
    {
      "inputs": [],
      "name": "rewardAmount",
      "outputs": [
        {
          "internalType": "uint256",
          "name": "",
          "type": "uint256"
        }
      ],
      "stateMutability": "view",
      "type": "function",
      "constant": true
    },
    {
      "inputs": [],
      "name": "totalDonations",
      "outputs": [
        {
          "internalType": "uint256",
          "name": "",
          "type": "uint256"
        }
      ],
      "stateMutability": "view",
      "type": "function",
      "constant": true
    },
    {
      "inputs": [],
      "name": "withdrawnAmount",
      "outputs": [
        {
          "internalType": "uint256",
          "name": "",
          "type": "uint256"
        }
      ],
      "stateMutability": "view",
      "type": "function",
      "constant": true
    },
    {
      "inputs": [
        {
          "internalType": "address",
          "name": "_receiverAddress",
          "type": "address"
        }
      ],
      "name": "setReceiverAddress",
      "outputs": [],
      "stateMutability": "nonpayable",
      "type": "function"
    },
    {
      "inputs": [
        {
          "internalType": "address",
          "name": "_charityAddress",
          "type": "address"
        }
      ],
      "name": "setCharityAddress",
      "outputs": [],
      "stateMutability": "nonpayable",
      "type": "function"
    },
    {
      "inputs": [
        {
          "internalType": "address",
          "name": "_donorAddress",
          "type": "address"
        }
      ],
      "name": "donate",
      "outputs": [],
      "stateMutability": "payable",
      "type": "function",
      "payable": true
    },
    {
      "inputs": [
        {
          "internalType": "address",
          "name": "donorAddress",
          "type": "address"
        }
      ],
      "name": "getDonorDonation",
      "outputs": [
        {
          "internalType": "uint256",
          "name": "",
          "type": "uint256"
        }
      ],
      "stateMutability": "view",
      "type": "function",
      "constant": true
    },
    {
      "inputs": [],
      "name": "claimReward",
      "outputs": [],
      "stateMutability": "nonpayable",
      "type": "function"
    },
    {
      "inputs": [
        {
          "internalType": "address",
          "name": "_receiverAddress",
          "type": "address"
        }
      ],
      "name": "withdrawDonations",
      "outputs": [],
      "stateMutability": "nonpayable",
      "type": "function"
    },
    {
      "inputs": [],
      "name": "getCharityAddress",
      "outputs": [
        {
          "internalType": "address",
          "name": "",
          "type": "address"
        }
      ],
      "stateMutability": "view",
      "type": "function",
      "constant": true
    },
    {
      "inputs": [],
      "name": "getReceiverAddress",
      "outputs": [
        {
          "internalType": "address",
          "name": "",
          "type": "address"
        }
      ],
      "stateMutability": "view",
      "type": "function",
      "constant": true
    },
    {
      "inputs": [],
      "name": "getContractBalance",
      "outputs": [
        {
          "internalType": "uint256",
          "name": "",
          "type": "uint256"
        }
      ],
      "stateMutability": "view",
      "type": "function",
      "constant": true
    }
  ],
  "bytecode": "0x60806040526000600555604051620015163803806200151683398181016040528101906200002e9190620000ce565b33600160006101000a81548173ffffffffffffffffffffffffffffffffffffffff021916908373ffffffffffffffffffffffffffffffffffffffff16021790555080600260006101000a81548173ffffffffffffffffffffffffffffffffffffffff021916908373ffffffffffffffffffffffffffffffffffffffff1602179055505062000148565b600081519050620000c8816200012e565b92915050565b600060208284031215620000e157600080fd5b6000620000f184828501620000b7565b91505092915050565b600062000107826200010e565b9050919050565b600073ffffffffffffffffffffffffffffffffffffffff82169050919050565b6200013981620000fa565b81146200014557600080fd5b50565b6113be80620001586000396000f3fe6080604052600436106100e75760003560e01c80638279c7db1161008a578063b88a802f11610059578063b88a802f146102c2578063ca0cdea8146102d9578063de2ed89314610318578063f7b2a7be14610343576100e7565b80638279c7db1461021a578063830de4b114610243578063a56f5b531461026e578063afcf2fc414610297576100e7565b806316fed3e2116100c657806316fed3e21461016e5780631ad0639314610199578063531ebce5146101c45780636f9fb98a146101ef576100e7565b8062362a95146100ec5780630c9be46d1461010857806315c6cba814610131575b600080fd5b61010660048036038101906101019190610c98565b61036e565b005b34801561011457600080fd5b5061012f600480360381019061012a9190610c98565b6104f9565b005b34801561013d57600080fd5b5061015860048036038101906101539190610c98565b6105cd565b6040516101659190611239565b60405180910390f35b34801561017a57600080fd5b50610183610618565b60405161019091906110a7565b60405180910390f35b3480156101a557600080fd5b506101ae61063e565b6040516101bb91906110a7565b60405180910390f35b3480156101d057600080fd5b506101d9610668565b6040516101e691906110a7565b60405180910390f35b3480156101fb57600080fd5b50610204610692565b6040516102119190611239565b60405180910390f35b34801561022657600080fd5b50610241600480360381019061023c9190610c98565b61069a565b005b34801561024f57600080fd5b5061025861076e565b6040516102659190611239565b60405180910390f35b34801561027a57600080fd5b5061029560048036038101906102909190610c98565b610774565b005b3480156102a357600080fd5b506102ac610990565b6040516102b991906110a7565b60405180910390f35b3480156102ce57600080fd5b506102d76109b6565b005b3480156102e557600080fd5b5061030060048036038101906102fb9190610c98565b610c20565b60405161030f939291906110c2565b60405180910390f35b34801561032457600080fd5b5061032d610c77565b60405161033a9190611239565b60405180910390f35b34801561034f57600080fd5b50610358610c7d565b6040516103659190611239565b60405180910390f35b600034116103b1576040517f08c379a00000000000000000000000000000000000000000000000000000000081526004016103a8906111f9565b60405180910390fd5b60008060008373ffffffffffffffffffffffffffffffffffffffff1673ffffffffffffffffffffffffffffffffffffffff1681526020019081526020016000209050818160000160006101000a81548173ffffffffffffffffffffffffffffffffffffffff021916908373ffffffffffffffffffffffffffffffffffffffff1602179055503481600101600082825461044a9190611270565b9250508190555060008160020160006101000a81548160ff02191690831515021790555034600360008282546104809190611270565b925050819055508173ffffffffffffffffffffffffffffffffffffffff167f264f630d9efa0d07053a31163641d9fcc0adafc9d9e76f1c37c2ce3a558d2c52346040516104cd9190611239565b60405180910390a2662386f26fc10000600560008282546104ee9190611270565b925050819055505050565b600160009054906101000a900473ffffffffffffffffffffffffffffffffffffffff1673ffffffffffffffffffffffffffffffffffffffff163373ffffffffffffffffffffffffffffffffffffffff1614610589576040517f08c379a000000000000000000000000000000000000000000000000000000000815260040161058090611179565b60405180910390fd5b80600160006101000a81548173ffffffffffffffffffffffffffffffffffffffff021916908373ffffffffffffffffffffffffffffffffffffffff16021790555050565b60008060008373ffffffffffffffffffffffffffffffffffffffff1673ffffffffffffffffffffffffffffffffffffffff168152602001908152602001600020600101549050919050565b600260009054906101000a900473ffffffffffffffffffffffffffffffffffffffff1681565b6000600160009054906101000a900473ffffffffffffffffffffffffffffffffffffffff16905090565b6000600260009054906101000a900473ffffffffffffffffffffffffffffffffffffffff16905090565b600047905090565b600260009054906101000a900473ffffffffffffffffffffffffffffffffffffffff1673ffffffffffffffffffffffffffffffffffffffff163373ffffffffffffffffffffffffffffffffffffffff161461072a576040517f08c379a0000000000000000000000000000000000000000000000000000000008152600401610721906110f9565b60405180910390fd5b80600260006101000a81548173ffffffffffffffffffffffffffffffffffffffff021916908373ffffffffffffffffffffffffffffffffffffffff16021790555050565b60045481565b600160009054906101000a900473ffffffffffffffffffffffffffffffffffffffff1673ffffffffffffffffffffffffffffffffffffffff163373ffffffffffffffffffffffffffffffffffffffff1614610804576040517f08c379a00000000000000000000000000000000000000000000000000000000081526004016107fb906111d9565b60405180910390fd5b600060035411610849576040517f08c379a0000000000000000000000000000000000000000000000000000000008152600401610840906111b9565b60405180910390fd5b6000600260009054906101000a900473ffffffffffffffffffffffffffffffffffffffff1673ffffffffffffffffffffffffffffffffffffffff1660035460405161089390611092565b60006040518083038185875af1925050503d80600081146108d0576040519150601f19603f3d011682016040523d82523d6000602084013e6108d5565b606091505b5050905080610919576040517f08c379a000000000000000000000000000000000000000000000000000000000815260040161091090611159565b60405180910390fd5b6003546004600082825461092d9190611270565b925050819055508173ffffffffffffffffffffffffffffffffffffffff167f84be5dad61c795759fa50da4da9ff0ffc28c522295c26854247b7d22728d8c0160035460405161097c9190611239565b60405180910390a260006003819055505050565b600160009054906101000a900473ffffffffffffffffffffffffffffffffffffffff1681565b60008060003373ffffffffffffffffffffffffffffffffffffffff1673ffffffffffffffffffffffffffffffffffffffff16815260200190815260200160002090506000816001015411610a3f576040517f08c379a0000000000000000000000000000000000000000000000000000000008152600401610a3690611139565b60405180910390fd5b8060020160009054906101000a900460ff1615610a91576040517f08c379a0000000000000000000000000000000000000000000000000000000008152600401610a8890611119565b60405180910390fd5b600554471015610ad6576040517f08c379a0000000000000000000000000000000000000000000000000000000008152600401610acd90611219565b60405180910390fd5b60018160020160006101000a81548160ff02191690831515021790555060003373ffffffffffffffffffffffffffffffffffffffff166005545a90604051610b1d90611092565b600060405180830381858888f193505050503d8060008114610b5b576040519150601f19603f3d011682016040523d82523d6000602084013e610b60565b606091505b5050905080610ba4576040517f08c379a0000000000000000000000000000000000000000000000000000000008152600401610b9b90611199565b60405180910390fd5b3373ffffffffffffffffffffffffffffffffffffffff167f106f923f993c2149d49b4255ff723acafa1f2d94393f561d3eda32ae348f7241600554604051610bec9190611239565b60405180910390a26000600581905550662386f26fc1000060036000828254610c1591906112c6565b925050819055505050565b60006020528060005260406000206000915090508060000160009054906101000a900473ffffffffffffffffffffffffffffffffffffffff16908060010154908060020160009054906101000a900460ff16905083565b60035481565b60055481565b600081359050610c9281611371565b92915050565b600060208284031215610caa57600080fd5b6000610cb884828501610c83565b91505092915050565b610cca816112fa565b82525050565b610cd98161130c565b82525050565b6000610cec602e8361125f565b91507f4f6e6c792074686520636861726974792063616e20736574207468652072656360008301527f656976657220616464726573732e0000000000000000000000000000000000006020830152604082019050919050565b6000610d52602e8361125f565b91507f5265776172642068617320616c7265616479206265656e20636c61696d65642060008301527f6279207468652063616c6c65722e0000000000000000000000000000000000006020830152604082019050919050565b6000610db860208361125f565b91507f4e6f20646f6e6174696f6e73206d616465206279207468652063616c6c65722e6000830152602082019050919050565b6000610df860128361125f565b91507f5769746864726177616c206661696c65642e00000000000000000000000000006000830152602082019050919050565b6000610e38602d8361125f565b91507f4f6e6c792074686520636861726974792063616e20736574207468652063686160008301527f7269747920616464726573732e000000000000000000000000000000000000006020830152604082019050919050565b6000610e9e60148361125f565b91507f52657761726420636c61696d206661696c65642e0000000000000000000000006000830152602082019050919050565b6000610ede60228361125f565b91507f546865726520617265206e6f20646f6e6174696f6e7320746f2077697468647260008301527f61770000000000000000000000000000000000000000000000000000000000006020830152604082019050919050565b6000610f44600083611254565b9150600082019050919050565b6000610f5e602c8361125f565b91507f4f6e6c792074686520636861726974792063616e20776974686472617720746860008301527f6520646f6e6174696f6e732e00000000000000000000000000000000000000006020830152604082019050919050565b6000610fc4602c8361125f565b91507f446f6e6174696f6e20616d6f756e742073686f756c642062652067726561746560008301527f72207468616e207a65726f2e00000000000000000000000000000000000000006020830152604082019050919050565b600061102a60388361125f565b91507f436f6e747261637420646f6573206e6f74206861766520656e6f75676820626160008301527f6c616e636520746f2070617920746865207265776172642e00000000000000006020830152604082019050919050565b61108c81611338565b82525050565b600061109d82610f37565b9150819050919050565b60006020820190506110bc6000830184610cc1565b92915050565b60006060820190506110d76000830186610cc1565b6110e46020830185611083565b6110f16040830184610cd0565b949350505050565b6000602082019050818103600083015261111281610cdf565b9050919050565b6000602082019050818103600083015261113281610d45565b9050919050565b6000602082019050818103600083015261115281610dab565b9050919050565b6000602082019050818103600083015261117281610deb565b9050919050565b6000602082019050818103600083015261119281610e2b565b9050919050565b600060208201905081810360008301526111b281610e91565b9050919050565b600060208201905081810360008301526111d281610ed1565b9050919050565b600060208201905081810360008301526111f281610f51565b9050919050565b6000602082019050818103600083015261121281610fb7565b9050919050565b600060208201905081810360008301526112328161101d565b9050919050565b600060208201905061124e6000830184611083565b92915050565b600081905092915050565b600082825260208201905092915050565b600061127b82611338565b915061128683611338565b9250827fffffffffffffffffffffffffffffffffffffffffffffffffffffffffffffffff038211156112bb576112ba611342565b5b828201905092915050565b60006112d182611338565b91506112dc83611338565b9250828210156112ef576112ee611342565b5b828203905092915050565b600061130582611318565b9050919050565b60008115159050919050565b600073ffffffffffffffffffffffffffffffffffffffff82169050919050565b6000819050919050565b7f4e487b7100000000000000000000000000000000000000000000000000000000600052601160045260246000fd5b61137a816112fa565b811461138557600080fd5b5056fea26469706673582212208ed69b5b13eaee4b87a251bd02a0238187a1641be6c83250d9cac57ff9173f2564736f6c63430008000033",
  "immutableReferences": {},
  "source": "// SPDX-License-Identifier: MIT\npragma solidity ^0.8.0;\n\ncontract Donation {\n    struct Donor {\n        address donorAddress;\n        uint256 donationAmount;\n        bool rewarded; //  \n    }\n\n    mapping(address => Donor) public donors;\n    address public charityAddress;\n    address public receiverAddress; //   \n    uint256 public totalDonations;\n    uint256 public withdrawnAmount;\n    uint256 public rewardAmount = 0 ether; //   -   0.01 ETH \n\n    event DonationReceived(address indexed donor, uint256 amount);\n    event DonationWithdrawn(address indexed receiver, uint256 amount);\n    event RewardClaimed(address indexed donor, uint256 amount);\n    \n    constructor(address _receiverAddress) payable {\n        charityAddress = msg.sender;\n        receiverAddress = _receiverAddress;\n    }\n\n    function setReceiverAddress(address _receiverAddress) public {\n        require(msg.sender == receiverAddress, \"Only the charity can set the receiver address.\");\n        receiverAddress = _receiverAddress;\n    }\n    \n    function setCharityAddress(address _charityAddress) public {\n        require(msg.sender == charityAddress, \"Only the charity can set the charity address.\");\n        charityAddress = _charityAddress;\n    }\n\n    function donate(address _donorAddress) public payable {\n        require(msg.value > 0, \"Donation amount should be greater than zero.\");\n\n        Donor storage donor = donors[_donorAddress];\n        donor.donorAddress = _donorAddress;\n        donor.donationAmount += msg.value;\n        donor.rewarded = false;\n\n        totalDonations += msg.value;\n\n        emit DonationReceived(_donorAddress, msg.value);\n\n        //    \n        rewardAmount += 0.01 ether;\n    }\n\n    function getDonorDonation(address donorAddress) public view returns (uint256) {\n        return donors[donorAddress].donationAmount;\n    }\n\n    function claimReward() public {\n        Donor storage donor = donors[msg.sender];\n        require(donor.donationAmount > 0, \"No donations made by the caller.\");\n        require(!donor.rewarded, \"Reward has already been claimed by the caller.\");\n        require(address(this).balance >= rewardAmount, \"Contract does not have enough balance to pay the reward.\");\n\n        donor.rewarded = true;\n\n        (bool success, ) = payable(msg.sender).call{value: rewardAmount, gas: gasleft()}(\"\");\n        require(success, \"Reward claim failed.\");\n\n        emit RewardClaimed(msg.sender, rewardAmount);\n        rewardAmount = 0;\n        totalDonations -= 0.01 ether;\n    }\n\n    function withdrawDonations(address _receiverAddress) public {\n        require(msg.sender == charityAddress, \"Only the charity can withdraw the donations.\");\n        require(totalDonations > 0, \"There are no donations to withdraw\");\n\n         (bool success, ) = receiverAddress.call{value: totalDonations}(\"\");\n        require(success, \"Withdrawal failed.\");\n\n        withdrawnAmount += totalDonations;\n        emit DonationWithdrawn(_receiverAddress, totalDonations);\n\n        totalDonations = 0;\n    }\n\n\n    function getCharityAddress() public view returns (address) {\n        return charityAddress;\n    }\n\n    function getReceiverAddress() public view returns (address) {\n        return receiverAddress;\n    }\n\n    function getContractBalance() public view returns (uint256) {\n        return address(this).balance;\n    }\n}\n",
  "sourcePath": "C:\\Users\\\\Desktop\\ 4 1\\-T\\project\\contracts\\Donation.sol",
  "compiler": {
    "name": "solc",
    "version": "0.8.0+commit.c7dfd78e.Emscripten.clang"
  },
  "schemaVersion": "3.4.14",
  "updatedAt": "2023-06-01T05:18:32.899Z",
  "networkType": "ethereum",
  "devdoc": {
    "kind": "dev",
    "methods": {},
    "version": 1
  },
  "userdoc": {
    "kind": "user",
    "methods": {},
    "version": 1
  }
}