{
  "contractName": "Donation",
  "abi": [
    {
      "inputs": [
        {
          "internalType": "address",
          "name": "_receiverAddress",
          "type": "address"
        }
      ],
      "stateMutability": "payable",
      "type": "constructor",
      "payable": true
    },
    {
      "anonymous": false,
      "inputs": [
        {
          "indexed": true,
          "internalType": "address",
          "name": "donor",
          "type": "address"
        },
        {
          "indexed": false,
          "internalType": "uint256",
          "name": "amount",
          "type": "uint256"
        }
      ],
      "name": "DonationReceived",
      "type": "event"
    },
    {
      "anonymous": false,
      "inputs": [
        {
          "indexed": true,
          "internalType": "address",
          "name": "receiver",
          "type": "address"
        },
        {
          "indexed": false,
          "internalType": "uint256",
          "name": "amount",
          "type": "uint256"
        }
      ],
      "name": "DonationWithdrawn",
      "type": "event"
    },
    {
      "anonymous": false,
      "inputs": [
        {
          "indexed": true,
          "internalType": "address",
          "name": "buyer",
          "type": "address"
        },
        {
          "indexed": false,
          "internalType": "uint256",
          "name": "productId",
          "type": "uint256"
        },
        {
          "indexed": false,
          "internalType": "uint256",
          "name": "price",
          "type": "uint256"
        }
      ],
      "name": "ProductPurchased",
      "type": "event"
    },
    {
      "anonymous": false,
      "inputs": [
        {
          "indexed": true,
          "internalType": "address",
          "name": "donor",
          "type": "address"
        },
        {
          "indexed": false,
          "internalType": "uint256",
          "name": "amount",
          "type": "uint256"
        }
      ],
      "name": "RewardClaimed",
      "type": "event"
    },
    {
      "inputs": [],
      "name": "charityAddress",
      "outputs": [
        {
          "internalType": "address",
          "name": "",
          "type": "address"
        }
      ],
      "stateMutability": "view",
      "type": "function",
      "constant": true
    },
    {
      "inputs": [
        {
          "internalType": "address",
          "name": "",
          "type": "address"
        }
      ],
      "name": "donors",
      "outputs": [
        {
          "internalType": "address",
          "name": "donorAddress",
          "type": "address"
        },
        {
          "internalType": "uint256",
          "name": "donationAmount",
          "type": "uint256"
        },
        {
          "internalType": "bool",
          "name": "rewarded",
          "type": "bool"
        }
      ],
      "stateMutability": "view",
      "type": "function",
      "constant": true
    },
    {
      "inputs": [
        {
          "internalType": "uint256",
          "name": "",
          "type": "uint256"
        }
      ],
      "name": "productSellers",
      "outputs": [
        {
          "internalType": "address",
          "name": "",
          "type": "address"
        }
      ],
      "stateMutability": "view",
      "type": "function",
      "constant": true
    },
    {
      "inputs": [
        {
          "internalType": "uint256",
          "name": "",
          "type": "uint256"
        }
      ],
      "name": "products",
      "outputs": [
        {
          "internalType": "uint256",
          "name": "productId",
          "type": "uint256"
        },
        {
          "internalType": "string",
          "name": "name",
          "type": "string"
        },
        {
          "internalType": "uint256",
          "name": "price",
          "type": "uint256"
        },
        {
          "internalType": "address",
          "name": "charityAddress",
          "type": "address"
        }
      ],
      "stateMutability": "view",
      "type": "function",
      "constant": true
    },
    {
      "inputs": [],
      "name": "projectCount",
      "outputs": [
        {
          "internalType": "uint256",
          "name": "",
          "type": "uint256"
        }
      ],
      "stateMutability": "view",
      "type": "function",
      "constant": true
    },
    {
      "inputs": [],
      "name": "purchaseCount",
      "outputs": [
        {
          "internalType": "uint256",
          "name": "",
          "type": "uint256"
        }
      ],
      "stateMutability": "view",
      "type": "function",
      "constant": true
    },
    {
      "inputs": [
        {
          "internalType": "uint256",
          "name": "",
          "type": "uint256"
        }
      ],
      "name": "purchases",
      "outputs": [
        {
          "internalType": "address",
          "name": "buyer",
          "type": "address"
        },
        {
          "internalType": "uint256",
          "name": "productId",
          "type": "uint256"
        },
        {
          "internalType": "uint256",
          "name": "purchaseAmount",
          "type": "uint256"
        }
      ],
      "stateMutability": "view",
      "type": "function",
      "constant": true
    },
    {
      "inputs": [],
      "name": "receiverAddress",
      "outputs": [
        {
          "internalType": "address",
          "name": "",
          "type": "address"
        }
      ],
      "stateMutability": "view",
      "type": "function",
      "constant": true
    },
    {
      "inputs": [],
      "name": "rewardAmount",
      "outputs": [
        {
          "internalType": "uint256",
          "name": "",
          "type": "uint256"
        }
      ],
      "stateMutability": "view",
      "type": "function",
      "constant": true
    },
    {
      "inputs": [],
      "name": "totalDonations",
      "outputs": [
        {
          "internalType": "uint256",
          "name": "",
          "type": "uint256"
        }
      ],
      "stateMutability": "view",
      "type": "function",
      "constant": true
    },
    {
      "inputs": [],
      "name": "withdrawnAmount",
      "outputs": [
        {
          "internalType": "uint256",
          "name": "",
          "type": "uint256"
        }
      ],
      "stateMutability": "view",
      "type": "function",
      "constant": true
    },
    {
      "inputs": [
        {
          "internalType": "address",
          "name": "_receiverAddress",
          "type": "address"
        }
      ],
      "name": "setReceiverAddress",
      "outputs": [],
      "stateMutability": "nonpayable",
      "type": "function"
    },
    {
      "inputs": [
        {
          "internalType": "address",
          "name": "_charityAddress",
          "type": "address"
        }
      ],
      "name": "setCharityAddress",
      "outputs": [],
      "stateMutability": "nonpayable",
      "type": "function"
    },
    {
      "inputs": [
        {
          "internalType": "address",
          "name": "_donorAddress",
          "type": "address"
        }
      ],
      "name": "donate",
      "outputs": [],
      "stateMutability": "payable",
      "type": "function",
      "payable": true
    },
    {
      "inputs": [
        {
          "internalType": "address",
          "name": "donorAddress",
          "type": "address"
        }
      ],
      "name": "getDonorDonation",
      "outputs": [
        {
          "internalType": "uint256",
          "name": "",
          "type": "uint256"
        }
      ],
      "stateMutability": "view",
      "type": "function",
      "constant": true
    },
    {
      "inputs": [],
      "name": "claimReward",
      "outputs": [],
      "stateMutability": "nonpayable",
      "type": "function"
    },
    {
      "inputs": [
        {
          "internalType": "address",
          "name": "_receiverAddress",
          "type": "address"
        }
      ],
      "name": "withdrawDonations",
      "outputs": [],
      "stateMutability": "nonpayable",
      "type": "function"
    },
    {
      "inputs": [],
      "name": "getCharityAddress",
      "outputs": [
        {
          "internalType": "address",
          "name": "",
          "type": "address"
        }
      ],
      "stateMutability": "view",
      "type": "function",
      "constant": true
    },
    {
      "inputs": [],
      "name": "getReceiverAddress",
      "outputs": [
        {
          "internalType": "address",
          "name": "",
          "type": "address"
        }
      ],
      "stateMutability": "view",
      "type": "function",
      "constant": true
    },
    {
      "inputs": [],
      "name": "getContractBalance",
      "outputs": [
        {
          "internalType": "uint256",
          "name": "",
          "type": "uint256"
        }
      ],
      "stateMutability": "view",
      "type": "function",
      "constant": true
    },
    {
      "inputs": [
        {
          "internalType": "string",
          "name": "_name",
          "type": "string"
        },
        {
          "internalType": "uint256",
          "name": "_price",
          "type": "uint256"
        },
        {
          "internalType": "address",
          "name": "_sellerAddress",
          "type": "address"
        }
      ],
      "name": "addProduct",
      "outputs": [],
      "stateMutability": "nonpayable",
      "type": "function"
    },
    {
      "inputs": [],
      "name": "getProductsCount",
      "outputs": [
        {
          "internalType": "uint256",
          "name": "",
          "type": "uint256"
        }
      ],
      "stateMutability": "view",
      "type": "function",
      "constant": true
    },
    {
      "inputs": [
        {
          "internalType": "uint256",
          "name": "_productId",
          "type": "uint256"
        }
      ],
      "name": "purchaseProduct",
      "outputs": [],
      "stateMutability": "payable",
      "type": "function",
      "payable": true
    },
    {
      "inputs": [],
      "name": "getRewardAmount",
      "outputs": [
        {
          "internalType": "uint256",
          "name": "",
          "type": "uint256"
        }
      ],
      "stateMutability": "view",
      "type": "function",
      "constant": true
    }
  ],
  "bytecode": "0x608060405260405162002440380380620024408339818101604052810190620000299190620000c9565b33600460006101000a81548173ffffffffffffffffffffffffffffffffffffffff021916908373ffffffffffffffffffffffffffffffffffffffff16021790555080600560006101000a81548173ffffffffffffffffffffffffffffffffffffffff021916908373ffffffffffffffffffffffffffffffffffffffff1602179055505062000143565b600081519050620000c38162000129565b92915050565b600060208284031215620000dc57600080fd5b6000620000ec84828501620000b2565b91505092915050565b6000620001028262000109565b9050919050565b600073ffffffffffffffffffffffffffffffffffffffff82169050919050565b6200013481620000f5565b81146200014057600080fd5b50565b6122ed80620001536000396000f3fe60806040526004361061014a5760003560e01c80637acc0b20116100b6578063a8ff20f91161006f578063a8ff20f91461047e578063afcf2fc4146104a7578063b88a802f146104d2578063ca0cdea8146104e9578063de2ed89314610528578063f7b2a7be146105535761014a565b80637acc0b20146103455780638279c7db14610385578063830de4b1146103ae5780638392fe31146103d95780638c7384e614610418578063a56f5b53146104555761014a565b80632b85ed9c116101085780632b85ed9c1461025257806336fbad261461027d57806338e76a03146102a8578063531ebce5146102c45780635786fd40146102ef5780636f9fb98a1461031a5761014a565b8062362a951461014f57806309a69f571461016b5780630c9be46d1461019657806315c6cba8146101bf57806316fed3e2146101fc5780631ad0639314610227575b600080fd5b6101696004803603810190610164919061170b565b61057e565b005b34801561017757600080fd5b50610180610711565b60405161018d9190611f78565b60405180910390f35b3480156101a257600080fd5b506101bd60048036038101906101b8919061170b565b61071b565b005b3480156101cb57600080fd5b506101e660048036038101906101e1919061170b565b6107ef565b6040516101f39190611f78565b60405180910390f35b34801561020857600080fd5b5061021161083a565b60405161021e9190611d2f565b60405180910390f35b34801561023357600080fd5b5061023c610860565b6040516102499190611d2f565b60405180910390f35b34801561025e57600080fd5b5061026761088a565b6040516102749190611f78565b60405180910390f35b34801561028957600080fd5b50610292610890565b60405161029f9190611f78565b60405180910390f35b6102c260048036038101906102bd919061179b565b610896565b005b3480156102d057600080fd5b506102d9610c7a565b6040516102e69190611d2f565b60405180910390f35b3480156102fb57600080fd5b50610304610ca4565b6040516103119190611f78565b60405180910390f35b34801561032657600080fd5b5061032f610cae565b60405161033c9190611f78565b60405180910390f35b34801561035157600080fd5b5061036c6004803603810190610367919061179b565b610cb6565b60405161037c9493929190611f93565b60405180910390f35b34801561039157600080fd5b506103ac60048036038101906103a7919061170b565b610d8e565b005b3480156103ba57600080fd5b506103c3610e62565b6040516103d09190611f78565b60405180910390f35b3480156103e557600080fd5b5061040060048036038101906103fb919061179b565b610e68565b60405161040f93929190611d81565b60405180910390f35b34801561042457600080fd5b5061043f600480360381019061043a919061179b565b610eb2565b60405161044c9190611d2f565b60405180910390f35b34801561046157600080fd5b5061047c6004803603810190610477919061170b565b610ee5565b005b34801561048a57600080fd5b506104a560048036038101906104a09190611734565b611101565b005b3480156104b357600080fd5b506104bc6112f5565b6040516104c99190611d2f565b60405180910390f35b3480156104de57600080fd5b506104e761131b565b005b3480156104f557600080fd5b50610510600480360381019061050b919061170b565b611573565b60405161051f93929190611d4a565b60405180910390f35b34801561053457600080fd5b5061053d6115ca565b60405161054a9190611f78565b60405180910390f35b34801561055f57600080fd5b506105686115d0565b6040516105759190611f78565b60405180910390f35b671bc16d674ec8000034116105c8576040517f08c379a00000000000000000000000000000000000000000000000000000000081526004016105bf90611f38565b60405180910390fd5b60008060008373ffffffffffffffffffffffffffffffffffffffff1673ffffffffffffffffffffffffffffffffffffffff1681526020019081526020016000209050818160000160006101000a81548173ffffffffffffffffffffffffffffffffffffffff021916908373ffffffffffffffffffffffffffffffffffffffff160217905550348160010160008282546106619190612090565b9250508190555060008160020160006101000a81548160ff02191690831515021790555034600660008282546106979190612090565b925050819055508173ffffffffffffffffffffffffffffffffffffffff167f264f630d9efa0d07053a31163641d9fcc0adafc9d9e76f1c37c2ce3a558d2c52346040516106e49190611f78565b60405180910390a2670de0b6b3a7640000600860008282546107069190612090565b925050819055505050565b6000600854905090565b600460009054906101000a900473ffffffffffffffffffffffffffffffffffffffff1673ffffffffffffffffffffffffffffffffffffffff163373ffffffffffffffffffffffffffffffffffffffff16146107ab576040517f08c379a00000000000000000000000000000000000000000000000000000000081526004016107a290611e78565b60405180910390fd5b80600460006101000a81548173ffffffffffffffffffffffffffffffffffffffff021916908373ffffffffffffffffffffffffffffffffffffffff16021790555050565b60008060008373ffffffffffffffffffffffffffffffffffffffff1673ffffffffffffffffffffffffffffffffffffffff168152602001908152602001600020600101549050919050565b600560009054906101000a900473ffffffffffffffffffffffffffffffffffffffff1681565b6000600460009054906101000a900473ffffffffffffffffffffffffffffffffffffffff16905090565b600a5481565b60095481565b60008060003373ffffffffffffffffffffffffffffffffffffffff1673ffffffffffffffffffffffffffffffffffffffff168152602001908152602001600020600101541161091a576040517f08c379a000000000000000000000000000000000000000000000000000000000815260040161091190611e38565b60405180910390fd5b60085447101561095f576040517f08c379a000000000000000000000000000000000000000000000000000000000815260040161095690611f58565b60405180910390fd5b60006001600083815260200190815260200160002060020154116109b8576040517f08c379a00000000000000000000000000000000000000000000000000000000081526004016109af90611e18565b60405180910390fd5b60006001600083815260200190815260200160002060020154905080471015610a16576040517f08c379a0000000000000000000000000000000000000000000000000000000008152600401610a0d90611e98565b60405180910390fd5b60016000803373ffffffffffffffffffffffffffffffffffffffff1673ffffffffffffffffffffffffffffffffffffffff16815260200190815260200160002060020160006101000a81548160ff02191690831515021790555060006001600084815260200190815260200160002060030160009054906101000a900473ffffffffffffffffffffffffffffffffffffffff1673ffffffffffffffffffffffffffffffffffffffff16825a90604051610ace90611d1a565b600060405180830381858888f193505050503d8060008114610b0c576040519150601f19603f3d011682016040523d82523d6000602084013e610b11565b606091505b5050905080610b55576040517f08c379a0000000000000000000000000000000000000000000000000000000008152600401610b4c90611dd8565b60405180910390fd5b600060405180606001604052803373ffffffffffffffffffffffffffffffffffffffff1681526020018581526020018481525090508060036000600a54815260200190815260200160002060008201518160000160006101000a81548173ffffffffffffffffffffffffffffffffffffffff021916908373ffffffffffffffffffffffffffffffffffffffff1602179055506020820151816001015560408201518160020155905050600a6000815480929190610c11906121a2565b9190505550610c1e610cae565b6006819055503373ffffffffffffffffffffffffffffffffffffffff167f228a5d93a19503d5154326b1b21603e2cdd97bda22fc58196235b4490659fc018585604051610c6c929190611fdf565b60405180910390a250505050565b6000600560009054906101000a900473ffffffffffffffffffffffffffffffffffffffff16905090565b6000600954905090565b600047905090565b6001602052806000526040600020600091509050806000015490806001018054610cdf90612170565b80601f0160208091040260200160405190810160405280929190818152602001828054610d0b90612170565b8015610d585780601f10610d2d57610100808354040283529160200191610d58565b820191906000526020600020905b815481529060010190602001808311610d3b57829003601f168201915b5050505050908060020154908060030160009054906101000a900473ffffffffffffffffffffffffffffffffffffffff16905084565b600560009054906101000a900473ffffffffffffffffffffffffffffffffffffffff1673ffffffffffffffffffffffffffffffffffffffff163373ffffffffffffffffffffffffffffffffffffffff1614610e1e576040517f08c379a0000000000000000000000000000000000000000000000000000000008152600401610e1590611db8565b60405180910390fd5b80600560006101000a81548173ffffffffffffffffffffffffffffffffffffffff021916908373ffffffffffffffffffffffffffffffffffffffff16021790555050565b60075481565b60036020528060005260406000206000915090508060000160009054906101000a900473ffffffffffffffffffffffffffffffffffffffff16908060010154908060020154905083565b60026020528060005260406000206000915054906101000a900473ffffffffffffffffffffffffffffffffffffffff1681565b600460009054906101000a900473ffffffffffffffffffffffffffffffffffffffff1673ffffffffffffffffffffffffffffffffffffffff163373ffffffffffffffffffffffffffffffffffffffff1614610f75576040517f08c379a0000000000000000000000000000000000000000000000000000000008152600401610f6c90611f18565b60405180910390fd5b600060065411610fba576040517f08c379a0000000000000000000000000000000000000000000000000000000008152600401610fb190611ef8565b60405180910390fd5b6000600560009054906101000a900473ffffffffffffffffffffffffffffffffffffffff1673ffffffffffffffffffffffffffffffffffffffff1660065460405161100490611d1a565b60006040518083038185875af1925050503d8060008114611041576040519150601f19603f3d011682016040523d82523d6000602084013e611046565b606091505b505090508061108a576040517f08c379a000000000000000000000000000000000000000000000000000000000815260040161108190611e58565b60405180910390fd5b6006546007600082825461109e9190612090565b925050819055508173ffffffffffffffffffffffffffffffffffffffff167f84be5dad61c795759fa50da4da9ff0ffc28c522295c26854247b7d22728d8c016006546040516110ed9190611f78565b60405180910390a260006006819055505050565b600460009054906101000a900473ffffffffffffffffffffffffffffffffffffffff1673ffffffffffffffffffffffffffffffffffffffff163373ffffffffffffffffffffffffffffffffffffffff1614611191576040517f08c379a000000000000000000000000000000000000000000000000000000000815260040161118890611ed8565b60405180910390fd5b60006009549050600060405180608001604052808381526020018681526020018581526020018473ffffffffffffffffffffffffffffffffffffffff168152509050806001600084815260200190815260200160002060008201518160000155602082015181600101908051906020019061120d9291906115d6565b506040820151816002015560608201518160030160006101000a81548173ffffffffffffffffffffffffffffffffffffffff021916908373ffffffffffffffffffffffffffffffffffffffff160217905550905050600460009054906101000a900473ffffffffffffffffffffffffffffffffffffffff166002600084815260200190815260200160002060006101000a81548173ffffffffffffffffffffffffffffffffffffffff021916908373ffffffffffffffffffffffffffffffffffffffff160217905550600960008154809291906112e9906121a2565b91905055505050505050565b600460009054906101000a900473ffffffffffffffffffffffffffffffffffffffff1681565b60008060003373ffffffffffffffffffffffffffffffffffffffff1673ffffffffffffffffffffffffffffffffffffffff168152602001908152602001600020905060008160010154116113a4576040517f08c379a000000000000000000000000000000000000000000000000000000000815260040161139b90611e38565b60405180910390fd5b8060020160009054906101000a900460ff16156113f6576040517f08c379a00000000000000000000000000000000000000000000000000000000081526004016113ed90611df8565b60405180910390fd5b60085447101561143b576040517f08c379a000000000000000000000000000000000000000000000000000000000815260040161143290611f58565b60405180910390fd5b60018160020160006101000a81548160ff02191690831515021790555060003373ffffffffffffffffffffffffffffffffffffffff166008545a9060405161148290611d1a565b600060405180830381858888f193505050503d80600081146114c0576040519150601f19603f3d011682016040523d82523d6000602084013e6114c5565b606091505b5050905080611509576040517f08c379a000000000000000000000000000000000000000000000000000000000815260040161150090611eb8565b60405180910390fd5b3373ffffffffffffffffffffffffffffffffffffffff167f106f923f993c2149d49b4255ff723acafa1f2d94393f561d3eda32ae348f72416008546040516115519190611f78565b60405180910390a2611561610cae565b60068190555060006008819055505050565b60006020528060005260406000206000915090508060000160009054906101000a900473ffffffffffffffffffffffffffffffffffffffff16908060010154908060020160009054906101000a900460ff16905083565b60065481565b60085481565b8280546115e290612170565b90600052602060002090601f016020900481019282611604576000855561164b565b82601f1061161d57805160ff191683800117855561164b565b8280016001018555821561164b579182015b8281111561164a57825182559160200191906001019061162f565b5b509050611658919061165c565b5090565b5b8082111561167557600081600090555060010161165d565b5090565b600061168c61168784612039565b612008565b9050828152602081018484840111156116a457600080fd5b6116af84828561212e565b509392505050565b6000813590506116c681612289565b92915050565b600082601f8301126116dd57600080fd5b81356116ed848260208601611679565b91505092915050565b600081359050611705816122a0565b92915050565b60006020828403121561171d57600080fd5b600061172b848285016116b7565b91505092915050565b60008060006060848603121561174957600080fd5b600084013567ffffffffffffffff81111561176357600080fd5b61176f868287016116cc565b9350506020611780868287016116f6565b9250506040611791868287016116b7565b9150509250925092565b6000602082840312156117ad57600080fd5b60006117bb848285016116f6565b91505092915050565b6117cd816120e6565b82525050565b6117dc816120f8565b82525050565b60006117ed82612069565b6117f7818561207f565b935061180781856020860161213d565b61181081612278565b840191505092915050565b6000611828602e8361207f565b91507f4f6e6c792074686520636861726974792063616e20736574207468652072656360008301527f656976657220616464726573732e0000000000000000000000000000000000006020830152604082019050919050565b600061188e60188361207f565b91507f50726f64756374207075726368617365206661696c65642e00000000000000006000830152602082019050919050565b60006118ce602e8361207f565b91507f5265776172642068617320616c7265616479206265656e20636c61696d65642060008301527f6279207468652063616c6c65722e0000000000000000000000000000000000006020830152604082019050919050565b600061193460138361207f565b91507f496e76616c69642070726f647563742049442e000000000000000000000000006000830152602082019050919050565b600061197460208361207f565b91507f4e6f20646f6e6174696f6e73206d616465206279207468652063616c6c65722e6000830152602082019050919050565b60006119b460128361207f565b91507f5769746864726177616c206661696c65642e00000000000000000000000000006000830152602082019050919050565b60006119f4602d8361207f565b91507f4f6e6c792074686520636861726974792063616e20736574207468652063686160008301527f7269747920616464726573732e000000000000000000000000000000000000006020830152604082019050919050565b6000611a5a603e8361207f565b91507f436f6e747261637420646f6573206e6f74206861766520656e6f75676820626160008301527f6c616e636520746f207075726368617365207468652070726f647563742e00006020830152604082019050919050565b6000611ac060148361207f565b91507f52657761726420636c61696d206661696c65642e0000000000000000000000006000830152602082019050919050565b6000611b0060228361207f565b91507f4f6e6c792074686520636861726974792063616e206164642070726f6475637460008301527f732e0000000000000000000000000000000000000000000000000000000000006020830152604082019050919050565b6000611b6660228361207f565b91507f546865726520617265206e6f20646f6e6174696f6e7320746f2077697468647260008301527f61770000000000000000000000000000000000000000000000000000000000006020830152604082019050919050565b6000611bcc600083612074565b9150600082019050919050565b6000611be6602c8361207f565b91507f4f6e6c792074686520636861726974792063616e20776974686472617720746860008301527f6520646f6e6174696f6e732e00000000000000000000000000000000000000006020830152604082019050919050565b6000611c4c602c8361207f565b91507f446f6e6174696f6e20616d6f756e742073686f756c642062652067726561746560008301527f72207468616e207a65726f2e00000000000000000000000000000000000000006020830152604082019050919050565b6000611cb260388361207f565b91507f436f6e747261637420646f6573206e6f74206861766520656e6f75676820626160008301527f6c616e636520746f2070617920746865207265776172642e00000000000000006020830152604082019050919050565b611d1481612124565b82525050565b6000611d2582611bbf565b9150819050919050565b6000602082019050611d4460008301846117c4565b92915050565b6000606082019050611d5f60008301866117c4565b611d6c6020830185611d0b565b611d7960408301846117d3565b949350505050565b6000606082019050611d9660008301866117c4565b611da36020830185611d0b565b611db06040830184611d0b565b949350505050565b60006020820190508181036000830152611dd18161181b565b9050919050565b60006020820190508181036000830152611df181611881565b9050919050565b60006020820190508181036000830152611e11816118c1565b9050919050565b60006020820190508181036000830152611e3181611927565b9050919050565b60006020820190508181036000830152611e5181611967565b9050919050565b60006020820190508181036000830152611e71816119a7565b9050919050565b60006020820190508181036000830152611e91816119e7565b9050919050565b60006020820190508181036000830152611eb181611a4d565b9050919050565b60006020820190508181036000830152611ed181611ab3565b9050919050565b60006020820190508181036000830152611ef181611af3565b9050919050565b60006020820190508181036000830152611f1181611b59565b9050919050565b60006020820190508181036000830152611f3181611bd9565b9050919050565b60006020820190508181036000830152611f5181611c3f565b9050919050565b60006020820190508181036000830152611f7181611ca5565b9050919050565b6000602082019050611f8d6000830184611d0b565b92915050565b6000608082019050611fa86000830187611d0b565b8181036020830152611fba81866117e2565b9050611fc96040830185611d0b565b611fd660608301846117c4565b95945050505050565b6000604082019050611ff46000830185611d0b565b6120016020830184611d0b565b9392505050565b6000604051905081810181811067ffffffffffffffff8211171561202f5761202e612249565b5b8060405250919050565b600067ffffffffffffffff82111561205457612053612249565b5b601f19601f8301169050602081019050919050565b600081519050919050565b600081905092915050565b600082825260208201905092915050565b600061209b82612124565b91506120a683612124565b9250827fffffffffffffffffffffffffffffffffffffffffffffffffffffffffffffffff038211156120db576120da6121eb565b5b828201905092915050565b60006120f182612104565b9050919050565b60008115159050919050565b600073ffffffffffffffffffffffffffffffffffffffff82169050919050565b6000819050919050565b82818337600083830152505050565b60005b8381101561215b578082015181840152602081019050612140565b8381111561216a576000848401525b50505050565b6000600282049050600182168061218857607f821691505b6020821081141561219c5761219b61221a565b5b50919050565b60006121ad82612124565b91507fffffffffffffffffffffffffffffffffffffffffffffffffffffffffffffffff8214156121e0576121df6121eb565b5b600182019050919050565b7f4e487b7100000000000000000000000000000000000000000000000000000000600052601160045260246000fd5b7f4e487b7100000000000000000000000000000000000000000000000000000000600052602260045260246000fd5b7f4e487b7100000000000000000000000000000000000000000000000000000000600052604160045260246000fd5b6000601f19601f8301169050919050565b612292816120e6565b811461229d57600080fd5b50565b6122a981612124565b81146122b457600080fd5b5056fea264697066735822122049e8c75c15b8d39675ee48baf4455d6444fbd8de90c4b6bba8d7d095c30c6c1064736f6c63430008000033",
  "immutableReferences": {},
  "source": "// SPDX-License-Identifier: MIT\npragma solidity ^0.8.0;\n\ncontract Donation {\n    struct Donor {\n        address donorAddress;\n        uint256 donationAmount;\n        bool rewarded; //  \n    }\n\n    struct Product {\n        uint256 productId;\n        string name;\n        uint256 price;\n        address charityAddress;\n    }\n\n    struct Purchase {\n        address buyer;\n        uint256 productId;\n        uint256 purchaseAmount;\n    }\n\n    mapping(address => Donor) public donors;\n    mapping(uint256 => Product) public products; //    \n    mapping(uint256 => address) public productSellers; //  ID     \n    mapping(uint256 => Purchase) public purchases;\n\n    address public charityAddress;\n    address public receiverAddress; //   \n    uint256 public totalDonations;\n    uint256 public withdrawnAmount;\n    uint256 public rewardAmount; //  \n    uint256 public projectCount; //  \n    uint256 public purchaseCount;\n\n    event DonationReceived(address indexed donor, uint256 amount);\n    event DonationWithdrawn(address indexed receiver, uint256 amount);\n    event RewardClaimed(address indexed donor, uint256 amount);\n    event ProductPurchased(address indexed buyer, uint256 productId, uint256 price);\n    \n    constructor(address _receiverAddress) payable {\n        charityAddress = msg.sender;\n        receiverAddress = _receiverAddress;\n    }\n\n    function setReceiverAddress(address _receiverAddress) public {\n        require(msg.sender == receiverAddress, \"Only the charity can set the receiver address.\");\n        receiverAddress = _receiverAddress;\n    }\n    \n    function setCharityAddress(address _charityAddress) public {\n        require(msg.sender == charityAddress, \"Only the charity can set the charity address.\");\n        charityAddress = _charityAddress;\n    }\n\n    function donate(address _donorAddress) public payable {\n        require(msg.value > 2 ether, \"Donation amount should be greater than zero.\");\n\n        Donor storage donor = donors[_donorAddress];\n        donor.donorAddress = _donorAddress;\n        donor.donationAmount += msg.value;\n        donor.rewarded = false;\n\n        totalDonations += msg.value;\n\n        emit DonationReceived(_donorAddress, msg.value);\n\n        //    \n        rewardAmount += 1 ether;\n    }\n\n    function getDonorDonation(address donorAddress) public view returns (uint256) {\n        return donors[donorAddress].donationAmount;\n    }\n\n    function claimReward() public {\n        Donor storage donor = donors[msg.sender];\n        require(donor.donationAmount > 0, \"No donations made by the caller.\");\n        require(!donor.rewarded, \"Reward has already been claimed by the caller.\");\n        require(address(this).balance >= rewardAmount, \"Contract does not have enough balance to pay the reward.\");\n\n        donor.rewarded = true;\n\n        (bool success, ) = payable(msg.sender).call{value: rewardAmount, gas: gasleft()}(\"\");\n        require(success, \"Reward claim failed.\");\n\n        emit RewardClaimed(msg.sender, rewardAmount);\n        totalDonations = getContractBalance();\n        rewardAmount = 0;\n    }\n\n    function withdrawDonations(address _receiverAddress) public {\n        require(msg.sender == charityAddress, \"Only the charity can withdraw the donations.\");\n        require(totalDonations > 0, \"There are no donations to withdraw\");\n\n         (bool success, ) = receiverAddress.call{value: totalDonations}(\"\");\n        require(success, \"Withdrawal failed.\");\n\n        withdrawnAmount += totalDonations;\n        emit DonationWithdrawn(_receiverAddress, totalDonations);\n\n        totalDonations = 0;\n    }\n\n    function getCharityAddress() public view returns (address) {\n        return charityAddress;\n    }\n\n    function getReceiverAddress() public view returns (address) {\n        return receiverAddress;\n    }\n\n    function getContractBalance() public view returns (uint256) {\n        return address(this).balance;\n    }\n\n    //   /  \n    function addProduct(string memory _name, uint256 _price, address _sellerAddress) public {\n        require(msg.sender == charityAddress, \"Only the charity can add products.\");\n        \n        uint256 productId = projectCount;\n        Product memory newProduct = Product(productId, _name, _price, _sellerAddress);\n        products[productId] = newProduct;\n        productSellers[productId] = charityAddress;\n        projectCount++;\n    }\n\n    function getProductsCount() public view returns (uint) {\n        return projectCount;\n    }\n\n    function purchaseProduct(uint256 _productId) public payable{\n        require(donors[msg.sender].donationAmount > 0, \"No donations made by the caller.\");\n        require(address(this).balance >= rewardAmount, \"Contract does not have enough balance to pay the reward.\");\n        require(products[_productId].price > 0, \"Invalid product ID.\");\n\n        uint256 productPrice = products[_productId].price;\n        require(address(this).balance >= productPrice, \"Contract does not have enough balance to purchase the product.\");\n\n        donors[msg.sender].rewarded = true;\n\n        (bool success, ) = products[_productId].charityAddress.call{value: productPrice, gas: gasleft()}(\"\");\n        require(success, \"Product purchase failed.\");\n\n\n        //   \n        Purchase memory newPurchase = Purchase(msg.sender, _productId, productPrice);\n        purchases[purchaseCount] = newPurchase;\n        purchaseCount++;\n\n        totalDonations = getContractBalance();\n\n        emit ProductPurchased(msg.sender, _productId, productPrice);\n    }\n\n    function getRewardAmount() public view returns (uint256) {\n        return rewardAmount;\n    }\n\n\n}\n",
  "sourcePath": "C:\\Users\\\\Desktop\\ 4 1\\-T\\project\\contracts\\Donation.sol",
  "compiler": {
    "name": "solc",
    "version": "0.8.0+commit.c7dfd78e.Emscripten.clang"
  },
  "schemaVersion": "3.4.14",
  "updatedAt": "2023-06-06T08:10:06.784Z",
  "networkType": "ethereum",
  "devdoc": {
    "kind": "dev",
    "methods": {},
    "version": 1
  },
  "userdoc": {
    "kind": "user",
    "methods": {},
    "version": 1
  }
}