{
  "contractName": "Donation",
  "abi": [
    {
      "inputs": [],
      "stateMutability": "payable",
      "type": "constructor",
      "payable": true
    },
    {
      "anonymous": false,
      "inputs": [
        {
          "indexed": true,
          "internalType": "address",
          "name": "donor",
          "type": "address"
        },
        {
          "indexed": false,
          "internalType": "uint256",
          "name": "amount",
          "type": "uint256"
        }
      ],
      "name": "DonationReceived",
      "type": "event"
    },
    {
      "inputs": [],
      "name": "charityAddress",
      "outputs": [
        {
          "internalType": "address",
          "name": "",
          "type": "address"
        }
      ],
      "stateMutability": "view",
      "type": "function",
      "constant": true
    },
    {
      "inputs": [
        {
          "internalType": "address",
          "name": "",
          "type": "address"
        }
      ],
      "name": "donors",
      "outputs": [
        {
          "internalType": "address",
          "name": "donorAddress",
          "type": "address"
        },
        {
          "internalType": "uint256",
          "name": "donationAmount",
          "type": "uint256"
        }
      ],
      "stateMutability": "view",
      "type": "function",
      "constant": true
    },
    {
      "inputs": [],
      "name": "totalDonations",
      "outputs": [
        {
          "internalType": "uint256",
          "name": "",
          "type": "uint256"
        }
      ],
      "stateMutability": "view",
      "type": "function",
      "constant": true
    },
    {
      "inputs": [],
      "name": "withdrawnAmount",
      "outputs": [
        {
          "internalType": "uint256",
          "name": "",
          "type": "uint256"
        }
      ],
      "stateMutability": "view",
      "type": "function",
      "constant": true
    },
    {
      "inputs": [],
      "name": "donate",
      "outputs": [],
      "stateMutability": "payable",
      "type": "function",
      "payable": true
    },
    {
      "inputs": [
        {
          "internalType": "address",
          "name": "donorAddress",
          "type": "address"
        }
      ],
      "name": "getDonorDonation",
      "outputs": [
        {
          "internalType": "uint256",
          "name": "",
          "type": "uint256"
        }
      ],
      "stateMutability": "view",
      "type": "function",
      "constant": true
    },
    {
      "inputs": [],
      "name": "withdrawDonations",
      "outputs": [],
      "stateMutability": "nonpayable",
      "type": "function"
    }
  ],
  "bytecode": "0x608060405233600160006101000a81548173ffffffffffffffffffffffffffffffffffffffff021916908373ffffffffffffffffffffffffffffffffffffffff160217905550610971806100546000396000f3fe6080604052600436106100705760003560e01c8063ca0cdea81161004e578063ca0cdea814610108578063ce1b088a14610146578063de2ed8931461015d578063ed88c68e1461018857610070565b806315c6cba814610075578063830de4b1146100b2578063afcf2fc4146100dd575b600080fd5b34801561008157600080fd5b5061009c60048036038101906100979190610580565b610192565b6040516100a9919061082c565b60405180910390f35b3480156100be57600080fd5b506100c76101dd565b6040516100d4919061082c565b60405180910390f35b3480156100e957600080fd5b506100f26101e3565b6040516100ff9190610768565b60405180910390f35b34801561011457600080fd5b5061012f600480360381019061012a9190610580565b610209565b60405161013d929190610783565b60405180910390f35b34801561015257600080fd5b5061015b61024d565b005b34801561016957600080fd5b50610172610418565b60405161017f919061082c565b60405180910390f35b61019061041e565b005b60008060008373ffffffffffffffffffffffffffffffffffffffff1673ffffffffffffffffffffffffffffffffffffffff168152602001908152602001600020600101549050919050565b60035481565b600160009054906101000a900473ffffffffffffffffffffffffffffffffffffffff1681565b60006020528060005260406000206000915090508060000160009054906101000a900473ffffffffffffffffffffffffffffffffffffffff16908060010154905082565b600160009054906101000a900473ffffffffffffffffffffffffffffffffffffffff1673ffffffffffffffffffffffffffffffffffffffff163373ffffffffffffffffffffffffffffffffffffffff16146102dd576040517f08c379a00000000000000000000000000000000000000000000000000000000081526004016102d4906107ec565b60405180910390fd5b600060025411610322576040517f08c379a0000000000000000000000000000000000000000000000000000000008152600401610319906107cc565b60405180910390fd5b6000600160009054906101000a900473ffffffffffffffffffffffffffffffffffffffff1673ffffffffffffffffffffffffffffffffffffffff1660025460405161036c90610753565b60006040518083038185875af1925050503d80600081146103a9576040519150601f19603f3d011682016040523d82523d6000602084013e6103ae565b606091505b50509050806103f2576040517f08c379a00000000000000000000000000000000000000000000000000000000081526004016103e9906107ac565b60405180910390fd5b600254600360008282546104069190610863565b92505081905550600060028190555050565b60025481565b60003411610461576040517f08c379a00000000000000000000000000000000000000000000000000000000081526004016104589061080c565b60405180910390fd5b60008060003373ffffffffffffffffffffffffffffffffffffffff1673ffffffffffffffffffffffffffffffffffffffff1681526020019081526020016000209050338160000160006101000a81548173ffffffffffffffffffffffffffffffffffffffff021916908373ffffffffffffffffffffffffffffffffffffffff160217905550348160010160008282546104fa9190610863565b9250508190555034600260008282546105139190610863565b925050819055503373ffffffffffffffffffffffffffffffffffffffff167f264f630d9efa0d07053a31163641d9fcc0adafc9d9e76f1c37c2ce3a558d2c5234604051610560919061082c565b60405180910390a250565b60008135905061057a81610924565b92915050565b60006020828403121561059257600080fd5b60006105a08482850161056b565b91505092915050565b6105b2816108b9565b82525050565b60006105c5601283610852565b91507f5769746864726177616c206661696c65642e00000000000000000000000000006000830152602082019050919050565b6000610605602283610852565b91507f546865726520617265206e6f20646f6e6174696f6e7320746f2077697468647260008301527f61770000000000000000000000000000000000000000000000000000000000006020830152604082019050919050565b600061066b600083610847565b9150600082019050919050565b6000610685602c83610852565b91507f4f6e6c792074686520636861726974792063616e20776974686472617720746860008301527f6520646f6e6174696f6e732e00000000000000000000000000000000000000006020830152604082019050919050565b60006106eb602c83610852565b91507f446f6e6174696f6e20616d6f756e742073686f756c642062652067726561746560008301527f72207468616e207a65726f2e00000000000000000000000000000000000000006020830152604082019050919050565b61074d816108eb565b82525050565b600061075e8261065e565b9150819050919050565b600060208201905061077d60008301846105a9565b92915050565b600060408201905061079860008301856105a9565b6107a56020830184610744565b9392505050565b600060208201905081810360008301526107c5816105b8565b9050919050565b600060208201905081810360008301526107e5816105f8565b9050919050565b6000602082019050818103600083015261080581610678565b9050919050565b60006020820190508181036000830152610825816106de565b9050919050565b60006020820190506108416000830184610744565b92915050565b600081905092915050565b600082825260208201905092915050565b600061086e826108eb565b9150610879836108eb565b9250827fffffffffffffffffffffffffffffffffffffffffffffffffffffffffffffffff038211156108ae576108ad6108f5565b5b828201905092915050565b60006108c4826108cb565b9050919050565b600073ffffffffffffffffffffffffffffffffffffffff82169050919050565b6000819050919050565b7f4e487b7100000000000000000000000000000000000000000000000000000000600052601160045260246000fd5b61092d816108b9565b811461093857600080fd5b5056fea2646970667358221220e7e7fee99d1df24257af1a5080f0db0537c3ce3677e2dd674c8638a63d029b4d64736f6c63430008000033",
  "immutableReferences": {},
  "source": "// SPDX-License-Identifier: MIT\npragma solidity ^0.8.0;\n\ncontract Donation {\n    //  \n    struct Donor {\n        address donorAddress; //  \n        uint256 donationAmount; //  \n    }\n\n    mapping(address => Donor) public donors;\n    address public charityAddress; //    \n    uint256 public totalDonations; //  \n    uint256 public withdrawnAmount; //  \n\n    event DonationReceived(address indexed donor, uint256 amount);\n\n    constructor() payable {\n        charityAddress = msg.sender; //        \n    }\n\n    function donate() public payable {\n        require(msg.value > 0, \"Donation amount should be greater than zero.\");\n        \n        Donor storage donor = donors[msg.sender];\n        donor.donorAddress = msg.sender;\n        donor.donationAmount += msg.value;\n        \n        totalDonations += msg.value;\n        \n        emit DonationReceived(msg.sender, msg.value);\n    }\n\n    function getDonorDonation(address donorAddress) public view returns (uint256) {\n        return donors[donorAddress].donationAmount;\n    }\n\n    function withdrawDonations() public {\n        require(msg.sender == charityAddress, \"Only the charity can withdraw the donations.\");\n         require(totalDonations > 0, \"There are no donations to withdraw\");\n\n        (bool success, ) = charityAddress.call{value: totalDonations}(\"\");\n        require(success, \"Withdrawal failed.\");\n        \n        withdrawnAmount += totalDonations;\n        totalDonations = 0;\n    }\n}\n",
  "sourcePath": "C:\\Users\\\\Desktop\\ 4 1\\-T\\project\\contracts\\Donation.sol",
  "compiler": {
    "name": "solc",
    "version": "0.8.0+commit.c7dfd78e.Emscripten.clang"
  },
  "schemaVersion": "3.4.14",
  "updatedAt": "2023-05-27T14:32:18.027Z",
  "networkType": "ethereum",
  "devdoc": {
    "kind": "dev",
    "methods": {},
    "version": 1
  },
  "userdoc": {
    "kind": "user",
    "methods": {},
    "version": 1
  }
}